:1000000020210020E1140000D9150000D9150000BE
:1000100000000000000000000000000000000000E0
:10002000000000000000000000000000D9150000E2
:100030000000000000000000D9150000D9150000E4
:10004000D9150000D9150000D9150000D9150000F8
:10005000D9150000D9150000D9150000D9150000E8
:10006000D9150000D9150000D9150000D9150000D8
:10007000D9150000D9150000D9150000D9150000C8
:10008000D9150000D9150000D9150000D9150000B8
:10009000D91500000000000000000000D915000084
:1000A000D9150000D9150000D9150000D915000098
:1000B0000000000010B5064C2378002B07D1054B3B
:1000C000002B02D0044800E000BF0123237010BDC4
:1000D000E400002000000000F06E0100084B10B5A5
:1000E000002B03D00749084800E000BF0748036819
:1000F000002B00D110BD064B002BFBD09847F9E731
:1001000000000000E8000020F06E0100F06E010029
:100110000000000080B584B000AF0200FB1D1A7023
:10012000FB1D1B789BB2094A19001000084B984729
:1001300003001A000E23FB181A800E23FB181B88DD
:10014000DBB21800BD4604B080BDC04600100042BE
:10015000750C000090B583B000AF040008001100DA
:10016000FB1D221C1A70BB1D021C1A707B1D0A1C71
:100170001A7000210E200D4B9847FB1D1B781800AC
:100180000B4B9847BB1D1B781800094B98477B1DEC
:100190001B781800064B984701210E20034B984707
:1001A00001231800BD4603B090BDC046990B000066
:1001B0001501000080B584B000AF78600A00FB1C18
:1001C0001A707B68802212041343FB6000210E200A
:1001D000104B9847FB681B0CDBB218000E4B98477E
:1001E000FB681B0ADBB218000B4B9847FB68DBB2BD
:1001F0001800094B9847FB1C1B781800064B9847C2
:1002000001210E20034B984701231800BD4604B07E
:1002100080BDC046990B00001501000080B584B078
:1002200000AF78600A00BB1C1A807B688022120431
:100230001343FB6000210E20144B9847FB681B0CF6
:10024000DBB21800124B9847FB681B0ADBB21800A0
:100250000F4B9847FB68DBB218000D4B9847BB1C4F
:100260001B88DBB218000A4B9847BB1C1B881B0A73
:100270009BB2DBB21800064B984701210E20034BBE
:10028000984701231800BD4604B080BD990B0000BB
:100290001501000080B588B000AF786039607B68D8
:1002A000802212041343BB61BB691B0CDAB20C231E
:1002B000FB181A70BB691B0ADAB20C23FB185A70C0
:1002C000BB69DAB20C23FB189A703B68DAB20C23D4
:1002D000FB18DA703B681B0ADAB20C23FB181A71A0
:1002E0003B681B0CDAB20C23FB185A713B681B0EDF
:1002F000DAB20C23FB189A7100210E20134B984799
:100300000023FB6116E0124B0C22B918FA698A1817
:1003100012789A62C0460E4B1B7EDBB21A00022393
:100320001340F8D00A4B9A6A1723FB181A70FB691E
:100330000133FB61FB69062BE5DD01210E20034B38
:10034000984701231800BD4608B080BD990B0000F6
:100350000010004290B585B000AF78607B68FB600C
:1003600000210E201B4B9847FB681B0CDBB21800CA
:10037000194B9847FB681B0ADBB21800164B9847CD
:10038000FB68DBB21800144B98470020124B9847CB
:100390000B23FC180020104B9847030023700A23FE
:1003A000FC1800200C4B98470300237001210E20FD
:1003B000084B98470A23FB181B789BB21B029AB282
:1003C0000B23FB181B789BB2D3189BB21800BD46B9
:1003D00005B090BD990B00001501000080B584B0F8
:1003E00000AF78600A00BB1C1A80BB1C1A887B68AF
:1003F000D318FB60FB68064A934204D9FB68054AA0
:1004000094466344FB60FB681800BD4604B080BDA1
:10041000FF0F000000F0FFFF80B584B000AF0200C6
:10042000BB1D1A800E4B18000E4B984703001A0094
:10043000BB1D1B889B1A9AB20E23FB181205120DC6
:100440001A800C23FB180E22BA18128806498A1A41
:100450001A800C23FB181B881800BD4604B080BD11
:10046000F820300055030000FC0F000090B585B067
:1004700000AF78600A00BB1C1A807B689BB20E221A
:10048000BC181800074B9847030023800E23FA1866
:10049000BB1C12881B889A42EFD3C046BD4605B0EC
:1004A00090BDC0461904000080B582B000AF0200C4
:1004B000BB1D1A803B1D0A1C1A80BA1D3B1D1288E9
:1004C0001B88D3189AB2BB1D1205120D1A80BB1DD2
:1004D0001B8803339AB2BB1D07490A401A80BB1D13
:1004E0001B88064A19001000054B9847BB1D1B8846
:1004F0001800BD4602B080BDFC0F0000FC2030009B
:100500001D02000090B583B000AFBC1D0F4B18005A
:100510000F4B9847030023803C1D0E4B18000C4BDB
:100520009847030023803A1DBB1D12881B889A42FE
:10053000EBD1BC1C074B1800054B984703002380E8
:10054000BB1C1B881800BD4603B090BDF8203000CE
:1005500055030000FC20300090B589B000AFF86072
:1005600008007A6019000A23FB18021C1A8008236D
:10057000FB180A1C1A800023FB610023BB61FB6887
:100580008022120413437B610823FB181B88FB6144
:100590000A23FB181B881800424B984703001A00D7
:1005A000FB699A4207D20A23FB181B8818003D4BAF
:1005B00098470300FB610A23FB181B88FA6992B273
:1005C00011001800384B984700210E20374B9847F0
:1005D0000A23FB181B88C22292039446634480229C
:1005E000120413437B617B691B0CDBB21800304B98
:1005F00098477B691B0ADBB218002D4B98477B6933
:10060000DBB218002A4B98470023BB6115E0294A4A
:100610007B68591C79601B789362C046254B1B7E12
:10062000DBB21A0002231340F8D0224B9A6A13233C
:10063000FB181A70BB690133BB61FB695A1EFA6172
:10064000002BE4D1BB69FB6101210E20174B9847B9
:10065000FB699AB20A23FC180A23FB181B881100B5
:100660001800154B9847030023800A23FC18134BEE
:10067000984703002380FB699AB20823FB180821DE
:10068000791809888A1A1A800823FB181B88002BFE
:1006900000D079E70A23FB181B881800BD4609B073
:1006A00090BDC046190400006D040000990B0000C5
:1006B0001501000000100042A9040000050500001B
:1006C000B0B58AB000AFF860B9607A603B600023D3
:1006D000BB6100237B6100233B620023FB615E4B17
:1006E00018005E4B98470300BB615D4B18005B4BE5
:1006F000984703007B617A69BB699A42EFD1262350
:10070000FB187A691A802623FB181B88C2229203E1
:1007100094466344534A11001800534B98472623CC
:10072000FB181B8804211800504B98470200262311
:10073000FB181A802623FB181B88C22292039A18E2
:10074000DC235B4219001000474B98472623FB1817
:100750001B8804211800454B984702002623FB18EC
:100760001A802623FB181B88C222920394466344F6
:100770007A68110018003C4B98472623FB181B8809
:1007800004211800394B984702002623FB181A80D1
:100790002623FB181B88C22292039446634402213D
:1007A0001800314B98472623FB181B88042118009A
:1007B0002E4B984702002623FB181A800023FB616A
:1007C00026E03B682A4A934203D980239B013B627F
:1007D00001E03B683B622623FB181B88C222920380
:1007E0009818BA68FB69D2183B6A9DB22623FC1898
:1007F0002623FB1819882B001E4DA84703002380D1
:10080000FA693B6AD318FB613A683B6AD31A3B60CA
:100810003B68002BD5D12623FB181B88104A1900F2
:100820001000154B98470C4B18000C4B98470300D1
:10083000BB610B4B1800094B984703007B617A6939
:10084000BB699A42EFD12623FB187A691A80C04609
:100850001800BD460AB0B0BDF820300055030000B6
:10086000FC20300000FFFFFF95020000DD030000C8
:10087000FF1F0000590500001D02000080B500AFF9
:10088000024B9847C046BD4680BDC046C50C00001F
:1008900080B500AF024B9847C046BD4680BDC046FC
:1008A000190D000080B500AF054B5B78DBB25BB281
:1008B000002B01DA012300E000231800BD4680BDB3
:1008C000000C004080B584B000AF78600023FB606E
:1008D0000023BB607B685B781B027A681278134345
:1008E0001A007B685B681343FB607B681B891B02F3
:1008F0007A6812781343BB60C0460B4B9847031EBF
:10090000FBD10A4B98470A4BBA689A60C046064B1F
:100910009847031EFBD1064BFA685A60054B98476F
:10092000C046BD4604B080BDA50800007D0800009B
:10093000000C00409108000080B584B000AF7860E2
:100940000E23FB1800221A807B685B781B021AB208
:100950007B681B781BB213431AB27B685B881BB29F
:1009600013431AB20E23FB181A80064B9847064A07
:100970000E23FB181B885380044B9847C046BD4686
:1009800004B080BD7D080000000C0040910800000C
:1009900080B582B000AF00237B600CE07A68130062
:1009A0005B009B189B000F4A9B1818000E4B984742
:1009B0007B6801337B607B68082BEFDD00237B6065
:1009C00009E07B689A00094BD3181800084B984738
:1009D0007B6801337B607B68172BF2DDC046BD4628
:1009E00002B080BD00000020C50800006C0000209F
:1009F0003909000080B584B000AF0200FB1D1A70F9
:100A00000023FB60FB1D1B782022134001D0002334
:100A10001BE0FB1D1B78C0221340402B0BD002DCD7
:100A2000002B05D010E0602B08D0802B09D00BE004
:100A3000084BFB6008E0084BFB6005E0074BFB60E0
:100A400002E0074BFB60C046FB681800BD4604B0DF
:100A500080BDC04600440041804400410045004143
:100A60008045004180B586B000AF786000237B618F
:100A70001223FB1800221A801023FB1800221A8070
:100A80007B68002B02D101235B427CE07B681B78F2
:100A900018003F4B98470300FB60FB68002B02D116
:100AA00001235B426FE07B681B781A001F23134011
:100AB00001229A4013007B611223FB187A691A8085
:100AC0007B691A0C1023FB181A8000237B617B685A
:100AD0005B78012B08D17B68DB781A067B691343AE
:100AE0002C4A13437B6123E07B689B781A004023E8
:100AF000134001D1002201E080239A027B689B7899
:100B0000190020230B4001D1002301E08023DB02E8
:100B10001A437B689B78190010230B4001D10023F6
:100B200001E08023DB0313431A007B6913437B61DD
:100B3000FB681B687A68927852B2D2B2D209D2B2FC
:100B400011007A68127810001F22024091400A00BA
:100B50001A43FB681A601223FB181B887A69134337
:100B60007B611223FB181A887B691A43FB689A621F
:100B70001023FB181A887B691343802212061A433C
:100B8000FB689A6200231800BD4606B080BDC046CF
:100B9000F50900000000015080B584B000AF0200EC
:100BA000FB1D1A70BB1D0A1C1A70FB1D1B78180058
:100BB000104B98470300FB60FB68002B02D1012318
:100BC0005B4213E0BB1D1B78012213405A1E934168
:100BD000DBB2BB60FB1D1B781F221340BA689A4032
:100BE0001300BB60FB68BA681A6100231800BD4699
:100BF00004B080BDF509000080B582B000AF786018
:100C00007B681B6802221A437B681A600123180064
:100C1000BD4602B080BD000080B584B000AFF86072
:100C2000B9607A601A00FB1C1A70FB68074A1A60E8
:100C3000FB68802292025A60FB68FA1C12781A73D1
:100C400001231800BD4604B080BDC0460C00300032
:100C500080B582B000AF78607B681B7EDBB21A0083
:100C6000022313405A1E9341DBB21800BD4602B066
:100C700080BD000080B584B000AF78600A00BB1C66
:100C80001A80BB1C1B88DB05DA0D7B689A62C046A4
:100C90007B6818000A4B984703001A000123534051
:100CA000DBB2002BF4D17B689A6A0F23FB181A7011
:100CB0000F23FB181B781800BD4604B080BDC0464A
:100CC000510C000080B582B000AF104B1B68002BA8
:100CD00012D1EFF310837B607B68002B09D172B6D1
:100CE000BFF35F8F0A4B00221A700A4B01221A7061
:100CF00002E0084B00221A70044B1B685A1C034B7D
:100D00001A60C046BD4602B080BDC046000100204A
:100D1000CC0000200401002080B500AF0B4B1B6805
:100D20005A1E0A4B1A60094B1B68002B0AD1084B4C
:100D30001B78DBB2002B05D0064B01221A70BFF3E3
:100D40005F8F62B6C046BD4680BDC0460001002030
:100D500004010020CC00002080B582B000AF786094
:100D60007B6801225A607B6800225A707B680622E9
:100D70001A707B6800221A727B6800225A72C04681
:100D8000BD4602B080BD80B582B000AF78607B68A0
:100D900003221A707B6800225A707B6801229A70C5
:100DA000C046BD4602B080BD80B582B000AF020033
:100DB000FB1D1A70034AFB1D1B781372C046BD460B
:100DC00002B080BD0004004080B582B000AF0200D8
:100DD000FB1D1A70BB1D0A1C1A70FB1D1B78012B12
:100DE00008D0022B0BD0002B0ED10B4ABB1D1B7859
:100DF00053720BE0084ABB1D1B78937206E0064A4B
:100E0000BB1D1B78D37201E0172300E000231800FC
:100E1000BD4602B080BDC0460004004080B582B02F
:100E200000AF0200FB1D1A70084AFB1D1B780F2142
:100E30000B40D9B253680F20014049001E20834364
:100E40000B435360C046BD4602B080BD0040004128
:100E500080B500AFC046044BDB6810221340FAD0C7
:100E6000C046BD4680BDC0460008004080B500AF0A
:100E70000C4B02229A840C4B98470A4A0B4B9B68F6
:100E8000D362084A094B5B689362064B00229A843E
:100E9000054B9847034A054B1B689BB29384C04699
:100EA000BD4680BD00080040510E00000801002032
:100EB00080B584B000AF78601A4B1B6AFB607B681A
:100EC0001B781A1C03231340DAB20D23FB180321ED
:100ED0000A4010001A7803218A43111C021C0A439D
:100EE0001A707B689A780C23FB18D0011A787F213E
:100EF0000A40111C021C0A431A707B685A780C23A2
:100F0000FB1801210A4090011A7840218A43111CE4
:100F1000021C0A431A70034BFA681A62C046BD46A7
:100F200004B080BD0008004080B582B000AF78609A
:100F30007B681B7A9B021B041A0C7B685B899B05F0
:100F40009B0D1A432A4B5A607B689A797B68DB7940
:100F50001343DBB21A007B685B8813437A6892887C
:100F60001A437B685B78DB011A43214B1A607B686C
:100F70001B78042B16D17B681B7B9B061A007B68B1
:100F8000DB891B0419001B4B0B4013437A68128A40
:100F90001A43174B9A60164B1B687A6812781A43EB
:100FA000134B1A607B681B78202B1CD17B681B7B42
:100FB0009B061A007B68DB891B0419000D4B0B4054
:100FC00013437A68128A1A43094B9A60084B1B68CC
:100FD0007A68127804210A43D2B213438022D200E5
:100FE0001A43034B1A60C046BD4602B080BDC046DE
:100FF000080100200000FF0380B582B000AF0200AE
:10100000FB1D1A70FB1D1B78082B3BD89A00214B47
:10101000D3181B689F46204B1F4A126A02210A43BD
:101020001A62002331E01C4B1B4A926902210A43D9
:101030009A6129E0184A184B1B8A9BB202210B4384
:101040009BB2138220E0144A134B9B8A9BB202216D
:101050000B439BB2938217E0104B1B6802221A438A
:101060000E4B1A600E4B98470EE00B4A0A49442378
:10107000CB5CDBB202210B43D9B24423D15403E051
:10108000002302E0172300E000231800BD4602B051
:1010900080BDC046146C010000080040080100201B
:1010A0006D0E000080B582B000AF3B0001221A70C7
:1010B00000237B6009E07B68DBB23A001100180076
:1010C000054B98477B6801337B607B68242BF2D902
:1010D000C046BD4602B080BD0514000080B5A0B07A
:1010E00000AF274BC222D2009A600020254B9847C0
:1010F000254B98477C23FB181800244B98477C23EA
:10110000FB1800221A707C23FB1801229A707C23A2
:10111000FB1800225A707C23FB1818001C4B9847C0
:1011200006201C4B98471C4B984700201B4B9847A8
:10113000002100201A4B984700210120184B9847A6
:1011400000210220164B98473B1D1800154B98476D
:101150003B1D06221A703B1D01225A603B1D0022D6
:101160001A723B1D00225A723B1D190000200E4BC3
:10117000984700200D4B9847C046BD4620B080BD23
:10118000000800401D0E0000A5100000870D0000A3
:10119000B10E0000F90F000055120000A90D00006B
:1011A000C90D0000590D000085120000A9130000B0
:1011B00080B582B000AF02003960FB1D1A70FB1DC4
:1011C0001B78012B0AD0022B0FD0002B14D10E4B11
:1011D0000D4A91693A680A439A610FE00A4B0A4A3C
:1011E000D1693A680A43DA6108E0074B064A116A96
:1011F0003A680A431A6201E0172300E0002318004E
:10120000BD4602B080BDC0460004004080B500AFBE
:10121000024B9847C046BD4680BDC046C50C000085
:1012200080B500AF024B9847C046BD4680BDC04662
:10123000190D000080B500AF054B5B78DBB25BB2E7
:10124000002B01DA012300E000231800BD4680BD19
:10125000000C004080B500AF08210020074B9847E4
:10126000074B01221A70C046054B1B78DBB21A00EF
:1012700001231340F8D1C046BD4680BDB111000026
:10128000000C004080B586B000AF02003960FB1D45
:101290001A70FB1D1B787B61FB1D1B783B613B6853
:1012A0001B781B021A007B6913437B613B685B78E8
:1012B000002B04D07B698022D20213437B613B6800
:1012C0005B7A002B04D07B698022120313437B617D
:1012D0003B685B68012B2CD93B685A683B685B68AC
:1012E000013B13401AD10023FB600223BB6005E0E1
:1012F000FB680133FB60BB685B00BB603B685A68FE
:10130000BB689A42F4D8FB681B023A6913433B61FD
:101310007B698022520313437B610AE03B685B6870
:101320001B023A6913433B617B698022920213439B
:101330007B613B681B7A002B04D07B69802292037F
:1013400013437B61C046134B9847031EFBD1124BDE
:101350009847124AFB1D1B781370C0460D4B9847E7
:10136000031EFBD10E4B3A699A60C046094B984761
:10137000031EFBD10A4B0A4A5168802252021140D7
:101380007A690A435A60074B9847C046BD4606B083
:1013900080BDC046351200000D120000080C004050
:1013A000000C00402112000080B582B000AF0200A6
:1013B000FB1D1A70C0460E4B9847031EFBD10D4B08
:1013C00098470D4AFB1D1B781370C046084B984781
:1013D000031EFBD1094B094A5268802149020A4386
:1013E0005A60074B9847C046BD4602B080BDC04614
:1013F000351200000D120000040C0040000C0040EB
:101400002112000080B584B000AF02003960FB1DDE
:101410001A70FB1D1B78FB603B681B781B021A00CF
:10142000FB681343FB60FB1D1B781800044B9847B7
:10143000044BFA6892B25A80C046BD4604B080BDE3
:1014400049140000000C004080B584B000AF0200D9
:10145000FB1D1A701C4B98471C4AFB1D1B78137010
:101460001B4B5B881B051B0FDBB2FB60184A5388C4
:1014700018490B405380164A154B5B889BB216499E
:101480000B409BB25380C046114B5B889BB21A0045
:101490008023DB011340F7D10D4AFB68DBB2191C36
:1014A0000F230B40D9B25388081C0F2101400802BA
:1014B00008490B40191C031C0B435380074B9847EA
:1014C000C046BD4604B080BD0D120000020C0040B5
:1014D000000C0040FFF0FFFFFFBFFFFF21120000E4
:1014E00080B582B000AF2F4B7B602F4B3B607A689A
:1014F0003B689A420CD007E03B681A1D3A607A6854
:10150000111D796012681A603A68284B9A42F3D329
:10151000274B3B6004E03B681A1D3A6000221A60CA
:101520003A68244B9A42F6D3234B7B60234B7A686C
:10153000FF218A439A60224A90235B000221D15006
:10154000204AD37803218B43191C02230B43D37009
:101550001C4AD3780C218B43191C08230B43D370EE
:10156000194A937B30218B43191C20230B4393731F
:10157000154A937B0C218B43191C08230B4393734F
:10158000114A937B03218B43191C02230B43937352
:101590000E4A536880210B4353600D4B98470D4B07
:1015A0009847FEE7F06E010000000020E4000020F4
:1015B000E4000020200100200000000000ED00E019
:1015C00000700041005000410048004100400041CF
:1015D0005D580000A117000080B500AFFEE780B5A0
:1015E00082B000AF78607B6801225A607B6800227D
:1015F0005A707B6806221A707B6800221A727B6818
:1016000000225A72C046BD4602B080BD80B582B08D
:1016100000AF78607B6800221A707B6800225A80D5
:101620007B6800229A807B6800229A717B68002286
:10163000DA717B6801225A707B6807221A727B6814
:101640003F225A817B6801221A737B680122DA816A
:101650007B6806221A82C046BD4602B080BD0000EB
:1016600080B582B000AF02003960FB1D1A70FB1D0F
:101670001B78012B0AD0022B0FD0002B14D10E4B5C
:101680000D4A91693A680A439A610FE00A4B0A4A87
:10169000D1693A680A43DA6108E0074B064A116AE1
:1016A0003A680A431A6201E0172300E00023180099
:1016B000BD4602B080BDC0460004004080B582B087
:1016C00000AF0200FB1D1A70084AFB1D1B780F219A
:1016D0000B40D9B253680F20014049001E208343BC
:1016E0000B435360C046BD4602B080BD0040004180
:1016F00080B582B000AF7860C0467B685A1E7A60C1
:10170000002BFAD1C0461800BD4602B080BD0000D3
:1017100080B586B000AF3B1D1800054B98473B1DB8
:101720001800044B9847C046BD4606B080BDC04671
:101730000D160000290F000090B585B000AF0F23F3
:10174000FC180520114B984703002370104B984755
:101750000E23FC1807200D4B98470300237002202E
:101760000C4B98473B0018000B4B98473B00072257
:101770001A703B0001225A603B0019000020074B01
:101780009847C046BD4605B090BDC046F90F000061
:1017900011170000BD160000DF15000085120000C3
:1017A00090B58BB000AF00237B620023FB61002368
:1017B000BB61FD4B9847FD4B9847FD4B9847FD4B50
:1017C000984710210220FC4B984720210220FA4B19
:1017D0009847FA4B1800FA4B9847FA4B1800F84B09
:1017E0009847F94B1800F64B9847F84B1800F44B04
:1017F000984780239A02C0239903F5480023F54CAB
:10180000A047F34B1800F44B9847F44B1800F44BE7
:101810009847F24B1800F24B9847F04B1800F04BEA
:101820009847EE4B1800EE4B9847002200214820C5
:10183000EC4B9847002200210020EA4B9847E74BE9
:101840001800E74B9847E54B1800E54B9847E34BEA
:101850001800E34B9847E14B1800E14B9847DF4BEA
:101860001800DF4B9847DD4B1800DD4B9847DB4BEA
:101870001800DB4B9847D94B1800D94B9847DA4BE7
:1018800001211800D94B9847D94B00211800D94B9A
:101890009847D94B00211800D64B9847D24B0021CE
:1018A0001800D24B9847F0235B00D44A190010006F
:1018B000D04B984789239B00D14A19001000CD4B8B
:1018C0009847D04B2B211800CA4B9847CE4B00218C
:1018D0001800C84B9847CD4B29211800C54B984795
:1018E00088235B00CA4A19001000C24B9847922314
:1018F0005B00C84A19001000BE4B9847C64B0C212C
:101900001800BC4B9847C54B00211800B94B9847AD
:10191000C34B0A211800B74B9847C24B002118004F
:10192000B24B9847C04B01211800B04B9847802319
:101930009A04C0239B0311001800BC4B9847BC4A73
:10194000BC4B11001800B94B9847BB4B0021180045
:10195000B64B9847B94B02211800A44B9847B84B97
:1019600080211800A14B9847B64B802118009F4B4F
:101970009847B54B802118009C4B9847B34B0721E3
:1019800018009A4B9847B04B40211800974B984746
:10199000974B1800AE4B98470300FB61964B18001D
:1019A000AB4B98470300BB61BA69FB699A42EFD120
:1019B000BB697B6200237B61A64BA7490022012003
:1019C000A64CA0477B6AC222920394466344A44A71
:1019D00011001800954B98477B6A04211800A14B11
:1019E000984703007B627B6AC22292039446634459
:1019F0009D4A110018008D4B98477B6A04211800FE
:101A0000984B984703007B627B6AC22292039446FC
:101A10006344874A11001800844B98477B6A04216D
:101A20001800904B984703007B627B6AC2229203A6
:101A30009A189C239B05190010007C4B98477B6AE1
:101A400004211800874B984703007B627B6AC222FF
:101A5000920394466344854A11001800734B9847DB
:101A60007B6A042118007F4B984703007B627B6AE6
:101A7000C2229203944663447D4A110018006B4BC6
:101A800098477B6A04211800764B984703007B62D5
:101A90007B6AC22292039A1880235B04190010000B
:101AA000624B98477B6A042118006E4B98470300ED
:101AB0007B627B6AC2229203944663446D4A1100A2
:101AC00018005A4B98477B6A04211800654B9847C9
:101AD00003007B627B6AC222920394466344664A97
:101AE00011001800514B98477B6A042118005D4B88
:101AF000984703007B627B6AC22292039A18802374
:101B0000DB0519001000494B98477B6A0421180037
:101B1000544B984703007B627B6AC22292039A1857
:101B200084239B0519001000404B98477B6A0421D1
:101B300018004C4B984703007B62504B5049386A61
:101B40009847031C3B624F4B386A98474E4C4F4AAC
:101B50004F4BA04703000C00180021004D4C002201
:101B60004D4BA04703000C00190022004B4B08000E
:101B700011009847031C3B61424B386998470300AA
:101B80000C0018002100464B98470A000100434B07
:101B9000080011009847031CFB603A4B38699847CE
:101BA00003000C0018007DE0DD100000551200005D
:101BB000391700009109000061160000D0000020D4
:101BC000650A0000D4000020D8000020DC000020BE
:101BD00000100042190C0000F90B0000A086010063
:101BE000F11600005501000020203000B501000072
:101BF000F82030001D020000FC20300034203000AE
:101C00002C20300030203000382030003C203000C4
:101C10004820300040203000442030004C2030006C
:101C200050203000642030006C203000950200000D
:101C30000700002604003000080030005420300067
:101C40009020300094203000D420300070203000EC
:101C50005503000070130100A4580000C1060000E5
:101C600000FFFFFFDD030000FF000002070000058A
:101C70000100001F10813F0710C103082536000036
:101C80000000A04069560000514A0000EA2E44546A
:101C9000FB210940E9410000008066400D5700002B
:101CA000591F00002100764B98470A000100754B30
:101CB000080011009847031CBB60734B7349F86818
:101CC0009847031C1A1C724B7249101C9847031C3E
:101CD0001A1CBC1D704B101C9847030023806A4BD4
:101CE0006E49B8689847031C1A1C694B6C49101C54
:101CF0009847031C1A1C3C1D674B101C9847030097
:101D000023807B6AC222920394466344654A110091
:101D10001800654B98477B6A04211800634B98476D
:101D200003007B627B6AC222920398183B1D00224B
:101D30009A5E13001B019B1A9B011A00BB1D002118
:101D40005B5E5B00D3189B029B0A80225204134304
:101D50001900554B98477B6A04211800534B98474C
:101D600003007B627B6AC222920394466344504A1A
:101D7000110018004C4B98477B6A042118004B4B0C
:101D8000984703007B627B6AC222920394466344B5
:101D9000484A11001800444B98477B6A04211800F8
:101DA000424B984703007B627B6AC22292039818D9
:101DB000BB1D00229B5E083BDB033F4A1A403B1DD4
:101DC00000215B5E083B5B045B0C13438022D20561
:101DD00013431900344B98477B6A04211800334B96
:101DE000984703007B627B6AC22292039A1884237D
:101DF0009B05190010002C4B98477B6A04211800A2
:101E00002A4B984703007B627B6AC2229203944666
:101E1000634400211800244B98477B6A0421180072
:101E2000224B984703007B627B6AC22292039A1876
:101E3000FF235B42190010001B4B98477B6A04216B
:101E400018001A4B984703007B627B6A9BB21B4ABF
:101E5000190010001A4B98471A4B18001A4B984754
:101E60000300FB61154B1800174B98470300BB613B
:101E7000BA69FB699A42EFD1BB697B62A2E5C046B1
:101E8000CD1E00000D570000493900000000F0424F
:101E90002536000000004043893B00000000A042BE
:101EA0000000B0420100001F95020000DD030000A9
:101EB00010813F0760C000080080FF3FFC20300019
:101EC0001D020000F82030005503000030B5204A04
:101ED0004B0087B05B0893421CDD1E4A934205DD30
:101EE00002000B0003F034F807B030BD02AA00F086
:101EF0007BF803231840049A059B012818D0022878
:101F00000DD000281ED0029803990124009401F0FE
:101F100019F8E9E70022002300F07EFAE4E70298CE
:101F2000039900F079FA80231B069C466144DBE7A5
:101F300000900298039901F005F880231B069C4647
:101F40006144D1E70298039900F066FACCE7C046F5
:101F5000FB21E93FFFFFEF7F30B5214A4B0087B0FF
:101F60005B0893421EDD1F4A934205DD02000B0011
:101F700002F0EEFF07B030BD02AA00F035F80323EF
:101F80001840049A059B01281ED0022811D0002871
:101F90001FD00298039900F03FFA80231B069C464D
:101FA0006144E7E7002300220093002300F0CAFF0A
:101FB000E0E7012402980399009400F0C3FF802316
:101FC0001B069C466144D5E70298039900F024FA69
:101FD000D0E7012402980399009400F0B3FFC9E709
:101FE000FB21E93FFFFFEF7FF0B54E464546DE4659
:101FF0005746E0B5D44B4C008FB0904689466408F4
:102000009C4200DC87E0D14B9C4222DCD04A002974
:1020100000DCBFE1CF4B02F09BFFCE4B06000F0070
:102020009C4200D194E0CC4ACC4B02F091FF0200DC
:102030000B00414630000A604B60390002F088FF17
:10204000C64BC54A02F084FF434601259860D9601B
:102050006BE0C34B9C4200DC97E0C24B9C426CDCC3
:10206000C14A231592469A4451460905631A19003C
:102070001D00040003F082FA03F0B4FA02000B0022
:10208000200029000892099302F062FF0022B74B5A
:1020900002F0DEFC0F00060003F070FA03F0A2FA73
:1020A00004000D0002000B00300039000A940B956B
:1020B00002F04EFF0022AD4B02F0CAFC00220023CA
:1020C0000C900D9101F080FA002800D181E10023ED
:1020D00000222000290001F077FA434243410133F6
:1020E000A34A41460192022208A80092524600F0FB
:1020F000ADFA4B460500002B17DA80224346120644
:10210000944642465B68454263445360D368424606
:102110006344D36009E00B00020041460A604B6053
:102120000022002300258A60CB6028000FB03CBC51
:1021300090469946A246AB46F0BD0B00020002F065
:1021400007FF434600259860D96018605960ECE7A6
:10215000D322824B520502F0FBFE864A864B0D00CD
:10216000040002F0F5FE02000B00414620000A6068
:102170004B60290002F0ECFE7F4B7E4A02F0E8FE45
:10218000434601259860D960CFE700F08BFF7B4A7A
:102190007B4B06000F0002F05BFC0022794B01F044
:1021A00013FD03F0EBF9050003F01CFA684A694BD4
:1021B0000490059102F04CFC02000B003000390045
:1021C00002F0C6FE644A06000F0004980599634BAE
:1021D00002F03EFC029003911F2D33DC6B1E6A4A15
:1021E0009B009B589C422DD002000B003000390010
:1021F00002F0AEFE0B008A460200414683460A60AA
:102200004B605A4653463000390002F0A1FE029A54
:10221000039B02F09DFE44460B000200A260E360B7
:102220004B46002B00DB80E75B46236080231B06C8
:102230005344636080231B069C466144A060E160B8
:102240006D4272E7029A039B3000390002F080FE73
:102250000B008A46020041460A604B6053465B0011
:1022600024155B0D8346E31A102BCADD04980599EB
:10227000D3223A4B520502F0EBFB0290039102008D
:102280000B003000390002F063FE06900791020057
:102290000B003000390002F05BFE029A039B02F053
:1022A00057FE06000F0004980599324A324B02F09F
:1022B000CFFB32003B0002F04BFE069E079F020060
:1022C0000B00300039000292039302F041FE0B0034
:1022D0008A46020041460A604B6053465B005B0D34
:1022E0008346E41A06960797312C8ADD04980599EF
:1022F000B822214B920502F0ABFB03000C00020058
:102300000293039430000B00390002F021FE02001A
:102310000B0006000F000698079902F019FE029ABA
:10232000039B02F015FE194A029003910498059947
:10233000174B02F08DFB029A039B02F009FE02008C
:102340000B000292039351E7FB21E93F7BD9024046
:1023500000004054FB21F93F3163621A61B4D03D63
:10236000FB213941FFFFEF7FEAFBFFFF00007041D7
:10237000B86C01007370032E8A19A33B83C8C96D22
:10238000305FE43F0000E03F386C0100C149202588
:102390009A837B391B4B01F017FC1A4B06000F0088
:1023A0009C4218D0184A194B01F00EFC02000B0099
:1023B000414630000A604B60390002F0C9FD124A04
:1023C000124B01F001FC012543466D429860D96033
:1023D000ABE6032384E6D3220C4B520501F0F4FB59
:1023E0000B4A0C4B04000D0001F0EEFB02000B0049
:1023F000414620000A604B60290002F0A9FD044A12
:10240000044BDEE7FB21F93F3163621A61B4D03D32
:102410007370032E8A19A33BF0B54746CE4680B5AC
:1024200087B000920193754B4F00814688467F0824
:102430009F4263DC03F0A2F8002800D1DAE04A46AC
:1024400043464846414602F003FB04000D006C4A37
:102450006C4B02F0FDFA6C4A6C4B01F0B5FB2200AC
:102460002B0002F0F5FA6A4A6A4B02F071FD220075
:102470002B0002F0EDFA684A684B01F0A5FB220040
:102480002B0002F0E5FA664A664B02F061FD22007D
:102490002B0002F0DDFA644A644B01F095FB220048
:1024A0002B0002F0D5FA029003910022604B20002D
:1024B000290002F0CDFA029A039B06000F002000CB
:1024C000290002F0C5FA009A019B04000D0048465D
:1024D000414602F0BDFA02000B002000290002F084
:1024E00037FD02000B003000390002F031FD020020
:1024F0000B0000204F4902F02BFD70E002000B00A2
:1025000002F0A6FA04000D003D4A3E4B02F0A0FA8C
:102510003D4A3E4B01F058FB22002B0002F098FA96
:102520003B4A3C4B02F014FD22002B0002F090FAD3
:10253000394A3A4B01F048FB22002B0002F088FA9E
:10254000374A384B02F004FD22002B0002F080FADB
:10255000354A364B01F038FB2B00220002F078FAA6
:10256000354B029003919F429FDD344B00229F42E6
:102570003ADC334900207B182E4916001F0002F078
:10258000E7FC049005910022294B2000290002F06D
:102590005FFA32003B0002F0DBFC029A039B06006C
:1025A0000F002000290002F053FA009A019B04005A
:1025B0000D004846414602F04BFA02000B00200095
:1025C000290002F0C5FC02000B003000390002F0C7
:1025D000BFFC02000B000498059902F0B9FC07B09B
:1025E0000CBC90469946F0BD164B0026049205930C
:1025F000154FC8E700200F49F1E7C046FFFF3F3EF7
:10260000D43888BEE9FAA8BDC4B1B4BD9EEE213E5F
:10261000AD529C804F7E923E9015CB19A001FA3EA0
:102620007751C1166CC1563F4C5555555555A53F70
:102630000000E03F0000F03F3233D33F0000E93FAD
:102640000000E0FF0000E73F0000D23FF0B5DE46AB
:102650004E4645465746E0B5A34CA54407911900A0
:102660001400A49A0993A14B9200D2580B00039036
:10267000013BE01E18211D0016000692029300F097
:10268000A7FEC3430200DB171A40130011000133F9
:102690000B929A009B1ADB001B1904934C1B7619B2
:1026A00018D4A59BA5009C46361922AF6544013677
:1026B00007E0286802F096FF013403C70435B442EE
:1026C00008D0002CF5DA00200021013403C70435BE
:1026D000B442F6D1069B002B01DA00F001FC72AB8C
:1026E00019008B4622AA9146069A08930132D2001D
:1026F0009344039A9A469046029BDB009944083320
:102700009844029B002B00DA8DE24C4600260027FD
:10271000039D2268636803CD02F09AF902000B0062
:102720003000390001F050FA083C06000F00454522
:10273000EFD15346C0C39A4608239C46E144DA458C
:10274000DFD1069A6A4913008C4663449B000EA8A9
:102750001900844661440D910399043B8B46634400
:102760000C93099B0092DB009B44009A0898D300CD
:1027700019000A938C46030063441E685F68002AB0
:1027800034DD0EAB994613005A4A804694466344A2
:10279000DB00984470AB9A460022574B300039005A
:1027A00002F056F902F0EAFE02F01CFF0022534B41
:1027B00004000D0002F04CF902000B00300039005B
:1027C00002F0C6FB02F0DAFE4B4601C399464346CF
:1027D00020001A685B68290001F0F6F908235B42C3
:1027E0009C46E04406000F00D045D5D1049B300044
:1027F0001A003900994600F0F1FCFF2300229B05E6
:1028000004000D0002F024F900F050FC00223C4BC3
:1028100002F01EF902000B002000290002F098FBD4
:102820000D00040002F0AAFE804602F0DBFE02006A
:102830000B002000290002F08BFB0F004946060028
:10284000002900DC10E1009B18205A1E92000EABFC
:102850009B58401A1D000541A84485405D1B0EABE6
:102860009D501722521A1541002D00DC7DE00123F6
:102870009C46009BE044002B48DD0E9C002C00D1C0
:102880004BE301220023002180204004041B0EA8FA
:1028900044500099914218DD92000EA989580EAC5F
:1028A0000591059817490233081AA050009A9A42D8
:1028B0000BDD0EAA9446009A9B009000634460448E
:1028C0001A688A1A04C38342FAD1049B0124002B9C
:1028D00021DC022D49D132003B0000200A4902F0E0
:1028E00037FB06000F0032E094FDFFFF006E010091
:1028F000FFFFFF3FFFFFFF1F0000703E0000704121
:1029000000002040FFFFFF000000F03F049B002478
:10291000002B00DC92E2049B012B00D17BE2022B16
:1029200009D1009B0EA95A1E92000EAB9B5805932D
:102930009B029B0A8B50022D17D132003B000020D6
:10294000BF4902F005FB06000F00002C0DD0049AD1
:102950000020BB4900F042FC02000B0030003900AF
:1029600002F0F6FA022506000F00002300223000D4
:10297000390000F029FE009B002800D162E2069990
:102980005A1E914210DCAF490D988C460EA9634443
:102990008C4600219B0063441C68043B2143834216
:1029A000FAD1002900D084E0069B0EAA013B9B00CF
:1029B000D358002B00D07CE201220C9B043B5968C9
:1029C00001320029FAD000990B008C460133624491
:1029D0000592934242DC0B9A9446A59A6344924630
:1029E000099A9B00944622AA90469A44009B089A12
:1029F0006344DB0098440A9B94469946059BE14456
:102A0000DB00634400935346186802F0EBFD434635
:102A100018605960029B002B23DB444600260027E8
:102A2000039D2268636803CD02F012F802000B00D8
:102A30003000390001F0C8F8083C06000F005D4581
:102A4000EFD14B469E60DF6004239C460433E24492
:102A50009C46009BE144E0449945D4D1059B0093FA
:102A600083E600260027ECE7049B002B06D1009BA1
:102A70000EAA013B9B00D558ED15F5E60022724BDE
:102A80003000390000F0C4FD0025002800D16CE7BB
:102A900001239C46009BE0440225002B00DDECE670
:102AA00032003B000020664902F052FA06000F0097
:102AB0005BE743460993049B0EA8183B1900049357
:102AC0009300C35803950292002B0FD15D48130069
:102AD00084460EA8634484469B006344043B5868C4
:102AE000013A18390028F9D002920491049A002082
:102AF000534900F073FB029B04000D00002B00DA29
:102B0000D9E10EAA94469E00DB0066449C46089AD2
:102B1000B046624416000493009270AF43461868B2
:102B200002F060FD22002B0001F092FF474B306065
:102B3000716000222000290001F08AFF04235B421B
:102B40009C46083E04000D00E044BE42E6D100234E
:102B50009A464AAB9946069B05969B465B460026DD
:102B60000027002B21DB8020394B009D9846C005B3
:102B7000384900260027002408E008239C46083531
:102B8000E044544511DC4346186859682A686B686C
:102B900001F05EFF02000B003000390001F014F874
:102BA000013406000F00A345E7DA5346DB004B442F
:102BB0001E605F6001239C46009B059A083BE2442F
:102BC00000939A42CAD1A49B022B00DD7AE0002B2D
:102BD00042DC1CD1049B00274B441E00002448AD5E
:102BE000326873683800210000F0EEFF083E0700ED
:102BF0000C00B542F4D1039B002B03D080231B06AD
:102C00009C4664443A00230007990A604B60072001
:102C1000099B18409B239B009D443CBC90469946D1
:102C2000A246AB46F0BD534600260027C0C39A46D5
:102C300008239C46E144DA4500D062E581E5C046C0
:102C40000000F03FFFFFFF3F0000E03F0000703E4C
:102C5000C06D0100FB21F93F049B00204B441E0086
:102C6000002148AF32687368083E00F0ADFFBE42F5
:102C7000F8D1039B002B00D1B8E08023079A1B06F4
:102C8000CB18106053600B0002004A984B9902F079
:102C90005FF9029B002B0BDD01264CAF0CCF00F03F
:102CA00093FF029B0136B342F8DA039B002B03D05B
:102CB00080231B069C4661440B00020007998A6032
:102CC000CB60A4E7A49B032BA1D1029B002B00DCCB
:102CD00020E1994A049B94464B441E685F68029B1E
:102CE00063449B46DB004B44984648AB9A464346B8
:102CF0005C681B681800210032003B0000900191C5
:102D000000F062FF04000D0002000B000098019922
:102D100002F01EF93B00320000F056FF4346986077
:102D2000D9601C605D6008235B429C46E04426003D
:102D30002F00C245DBD1029B012B00DCEAE0049BA3
:102D4000C8464B441E685F685B46DB009B46D84420
:102D500043465C681B681800210032003B0000906D
:102D6000019100F031FF04000D0002000B000098FB
:102D7000019902F0EDF83B00320000F025FF4346D8
:102D80009860D9601C605D6008235B429C46E0440B
:102D900026002F00C145DBD15D4600270024083501
:102DA0004D444CAE2A686B683800210000F00CFFDF
:102DB000083D07000C00AE42F4D1039B002B00D16C
:102DC00091E08021079A4A9B090613604B468C4686
:102DD0005B686444634453604B469B68176193602F
:102DE0004B46DB6854616344D36010E702000B007C
:102DF000079C226063600B0002004A984B9902F026
:102E0000A7F8029B002B00DD46E70B0002000799A4
:102E10008A60CB60FBE6009B0EA95A1E92000EABA7
:102E20009B5805935B025B0A8B5084E5009A013343
:102E30009A4276D1049B002B00DD6CE5022D00D078
:102E400093E52DE6994643460993049B30005A4288
:102E50003900039500F0C2F90022384B04000D0040
:102E600000F0D6FB002830D0354B0022200029008E
:102E700001F0EEFD02F082FB4A460600970002F0E8
:102E8000B1FB00222D4B01F0E3FD02000B002000FE
:102E9000290002F05DF802F071FB0EAAD0514A46FB
:102EA000049B013218330292049393000EAAD65069
:102EB0001CE6012287E5A49B022B25DC002B38DCD5
:102EC00000D0A4E60027002495E64B462000290008
:102ED0009E0002F053FB0EAB98514B46029305E661
:102EE00072AB08932DE407994A9A4B9B0A604B609A
:102EF0004B469A68DB68009201938A60CB603A0087
:102F000023000A614B6182E64AAB9946A49B032BDE
:102F100000D07CE6002700244FE7009A0123012A15
:102F200088DD99000EAA5458002C00D17EE75A1C67
:102F3000AAE4002000219CE6FFFFFF1F0000704173
:102F40000000703EF0B5CE46474680B587B000928F
:102F50000193464A4B00814688465B08934205DC54
:102F600002F00CFB4146031E484666D04A464346E3
:102F70004846414601F06CFD04000D0002000B00C4
:102F80004846414601F064FD394A3A4B06000F00BD
:102F90002000290001F05CFD374A384B01F0D8FFD2
:102FA00022002B0001F054FD354A364B00F00CFE98
:102FB00022002B0001F04CFD334A344B01F0C8FFD6
:102FC00022002B0001F044FD314B324A00F0FCFDA1
:102FD0000E9B02900391002B34D00098019900229F
:102FE0002D4B01F035FD029A039B049005913000B2
:102FF000390001F02DFD02000B000498059901F045
:10300000A7FF22002B0001F023FD009A019B01F095
:103010009FFF224A04000D00214B3000390001F0CF
:1030200017FD02000B002000290000F0CDFD02007A
:103030000B004846414601F08BFF07B00CBC9046A0
:103040009946F0BD02000B002000290001F000FDB0
:10305000124A134B01F07CFF32003B0001F0F8FCF8
:103060004A46434600F0B0FDE7E7C046FFFF3F3E5B
:103070007CD5CF5A3AD9E53DEB9C2B8AE6E55A3E02
:103080007DFEB157E31DC73ED561C119A0012A3F9E
:103090001111813FA6F810110000E03F4955555528
:1030A0005555C53F49004B0819007047454AF8B5CA
:1030B000574692464B005B0D9A444E464546DE46C7
:1030C0005246E0B50C0005000E0089460700132AA1
:1030D00022DC002A47DB52463B4B134198460B004B
:1030E00042461340034311D0384A394B00F06CFD7F
:1030F0000022002300F082FA002805D0002C41DBDA
:103100004E46434600279E43380031003CBC904663
:103110009946A246AB46F8BD5246332A08DD8023C5
:10312000DB009A45F2D102000B0000F04DFDEDE707
:10313000284A9446012263445242DA4093460242AE
:10314000E4D0224A224B00F03FFD0022002300F091
:1031500055FA0028D8D0002C1ADB5B464E469F4318
:1031600038003100D2E7194A194B00F02DFD00223A
:10317000002300F043FA0028C6D0002C16DB0027FD
:103180000026C1E7802352465B0313419944B7E709
:103190005346142B12D03423524601279B1A9F40CA
:1031A0007F19AF429B415B429944D6E764006408B3
:1031B00025430027002DA7D0074EA5E7133B9C46CB
:1031C000E144CAE701FCFFFFFFFF0F009C75008888
:1031D0003CE4377EEDFBFFFF0000F0BF4B0070B515
:1031E0005B0D14000A00002B1AD14B005B0803434F
:1031F00015D00022224B01F02BFC224B0A009C42EE
:1032000022DB4B005B0D363B1F4DE318AB4220DC4D
:10321000002B0DDD1D4C1B0522401A43110070BD13
:103220001B4DAB42F0D102000B0000F0CDFCF6E7E5
:103230001D00353518DA174B02009C420ADC0B00E2
:103240001548164900F032F8134A144B01F000FCFF
:10325000E5E702000B001248124900F027F8104A77
:10326000104B01F0F5FBDAE7084C363322401B0522
:103270001343190000220C4B01F0EAFBCFE7C046D4
:1032800000005043B03CFFFFFE070000FFFF0F802F
:10329000FF07000050C3000059F3F8C21F6EA501DC
:1032A0009C7500883CE4377E0000903C30B54A00B5
:1032B000DB0FDB0752081A43110030BD0022430820
:1032C0008B4274D303098B425FD3030A8B4244D3EE
:1032D000030B8B4228D3030C8B420DD3FF22090230
:1032E00012BA030C8B4202D31212090265D0030BEF
:1032F0008B4219D300E0090AC30B8B4201D3CB03E5
:10330000C01A5241830B8B4201D38B03C01A524126
:10331000430B8B4201D34B03C01A5241030B8B4228
:1033200001D30B03C01A5241C30A8B4201D3CB0213
:10333000C01A5241830A8B4201D38B02C01A5241F8
:10334000430A8B4201D34B02C01A5241030A8B42FB
:1033500001D30B02C01A5241CDD2C3098B4201D313
:10336000CB01C01A524183098B4201D38B01C01A91
:10337000524143098B4201D34B01C01A5241030908
:103380008B4201D30B01C01A5241C3088B4201D3B7
:10339000CB00C01A524183088B4201D38B00C01A64
:1033A000524143088B4201D34B00C01A5241411A8B
:1033B00000D20146524110467047FFE701B5002098
:1033C00000F0F0F802BDC0460029F7D076E770475C
:1033D00003460B437FD4002243088B4274D3030976
:1033E0008B425FD3030A8B4244D3030B8B4228D317
:1033F000030C8B420DD3FF22090212BA030C8B423D
:1034000002D31212090265D0030B8B4219D300E0DC
:10341000090AC30B8B4201D3CB03C01A5241830B61
:103420008B4201D38B03C01A5241430B8B4201D311
:103430004B03C01A5241030B8B4201D30B03C01A3A
:103440005241C30A8B4201D3CB02C01A5241830AB4
:103450008B4201D38B02C01A5241430A8B4201D3E3
:103460004B02C01A5241030A8B4201D30B02C01A0D
:103470005241CDD2C3098B4201D3CB01C01A524174
:1034800083098B4201D38B01C01A524143098B42FD
:1034900001D34B01C01A524103098B4201D30B01E6
:1034A000C01A5241C3088B4201D3CB00C01A52410B
:1034B00083088B4201D38B00C01A524143088B42D0
:1034C00001D34B00C01A5241411A00D20146524169
:1034D000104670475DE0CA0F00D04942031000D388
:1034E0004042534000229C4603098B422DD3030ADD
:1034F0008B4212D3FC22890112BA030A8B420CD3ED
:10350000890192118B4208D3890192118B4204D315
:1035100089013AD0921100E08909C3098B4201D395
:10352000CB01C01A524183098B4201D38B01C01ACF
:10353000524143098B4201D34B01C01A5241030946
:103540008B4201D30B01C01A5241C3088B4201D3F5
:10355000CB00C01A524183088B4201D38B00C01AA2
:103560005241D9D243088B4201D34B00C01A524179
:10357000411A00D20146634652415B10104601D306
:103580004042002B00D54942704763465B1000D390
:10359000404201B5002000F005F802BD0029F8D036
:1035A00016E770477047C0468446101C62468C463A
:1035B000191C634600E0C0461FB501F0E7F900287A
:1035C00001D40021C8421FBD10B501F041F94042AD
:1035D000013010BD10B501F0D9F9002801DB002041
:1035E00010BD012010BDC04610B501F0CFF9002874
:1035F00001DD002010BD012010BDC04610B501F056
:1036000061F9002801DC002010BD012010BDC0467A
:1036100010B501F057F9002801DA002010BD012093
:1036200010BDC046F0B5C6464E024702760A7B0A78
:103630004400C50FF7004800984600B5240E2A0044
:10364000DB00000EC90FBC468D4267D0221A002A4B
:1036500000DCA5E000283AD1002F00D193E0511EF4
:10366000002900D0BCE00124DB1B5A0146D59B0198
:103670009E09300002F0D4F805388640844200DD0F
:103680009DE0041B320020200134E240041BA640D0
:1036900033005E1EB341002413435A0704D00F22A7
:1036A0001A40042A00D004335A0129D50134FF2CD2
:1036B00000D181E02A009B015B0AE4B25B02E405D1
:1036C000580AD2072043104304BC9046F0BDFF2C9B
:1036D000E3D080213800C904084384461B2A00DD5A
:1036E00082E020206146D140821A6046904002006C
:1036F000501E82410A439B1A5A01B8D45A07CED1B0
:10370000DE082A00FF2C3AD1002E00D1AEE0802343
:10371000DB0333435B025B0AFF24CFE7211A002956
:1037200052DD002831D0FF2CB7D080203E00C004ED
:103730000643B4461B2900DDAAE020266046C840A7
:10374000711A66468E4031004E1EB14101435B182E
:103750005901D3D50134FF2C00D187E001227849EB
:103760001A405B080B40134397E7002C00D0A7E0FA
:10377000002B00D0B6E03B1E62D10026002273026F
:103780005B0AE4B29AE7140087E7002F4DD0481E89
:10379000002857D1634401245A01AFD50224DDE744
:1037A000002A24D1621CD2B2012ADEDDDE1B7201A6
:1037B00035D5FE1A0D005CE72A0000237EE73300B2
:1037C000604A241A134068E7002963D1611CC8B21B
:1037D00001284EDDFF2949D063445B080C005CE7FB
:1037E000FF2A41D00A0079E701229B1A84E7002CC6
:1037F0001DD0FF2822D08024E404524223431B2AF8
:1038000000DD8AE01C002025D440AA1A93405A1EED
:103810009341234362460400D31A0D0025E7002E8E
:1038200000D026E700220024A9E70C0035E7002B92
:103830004DD0D243002AEDD0FF28E0D16346FF24CB
:103840000D002AE7FF290FD0010073E7002B61D09C
:10385000FF24002F00D120E780224146D2031142ED
:1038600002D0164200D13B00FF2416E7FF240023BC
:1038700024E7002CEAD1002B58D0002F00D10CE710
:1038800063445A0100D439E72E4A0C00134004E780
:1038900001215CE7002C1ED1002B40D0C943002938
:1038A0000BD0FF2836D01B2947DC1C002026CC403B
:1038B000711A8B40591E8B4123436344040047E730
:1038C000002B18D13B1E2DD00D00FF24E5E63B0058
:1038D00004000D00E1E6FF281CD08024E4044942E6
:1038E0002343E0E7002F00D1D7E6DE1B72011FD58E
:1038F000FB1A0D00D1E6FF24002F00D1CDE6802277
:103900004046D2031042AFD01642ADD13B000D006D
:10391000FF24C2E66346FF24BFE601237AE73B00AB
:103920000400BAE680260022F603F0E63B00B4E687
:10393000331E00D0E2E6002221E70123BDE7C046A6
:10394000FFFFFF7DFFFFFFFBF8B557464E4645469C
:10395000DE46E0B54702460088467F0A360EC40FB1
:10396000002E47D0FF2E24D0FB008027FF041F43EA
:10397000002399469A467F3E43465D025800DB0F7E
:103980006D0A000E984643D0FF283BD0EB008025FF
:103990000022ED041D437F383618731C41469B46B8
:1039A0004B46614013430F2B64D875489B00C358A6
:1039B0009F46002F42D108239946063BFF269A4690
:1039C000DAE74146022A28D0032A00D1CEE0012AB4
:1039D00000D0ACE0114000200022CCB24002D20561
:1039E000400AE407104320433CBC90469946A24657
:1039F000AB46F8BD002F15D104239946033B0026A2
:103A00009A46B9E7FF200222002DC5D00322C3E762
:103A1000002D19D100200122BEE70124FF220C4015
:103A20000020DBE7380001F0FBFE7626431F9F40B5
:103A300000237642361A99469A469DE70C2399460A
:103A4000093BFF269A4697E7280001F0E9FE431F4D
:103A50009D4076235B42181A00229DE780200024B7
:103A6000C003FF22BAE73D005246ABE73D0021000C
:103A70005246A7E73B0C9C462A04120C2B0C140060
:103A8000604665463F043F0C7C4342435D437B43B5
:103A9000270C9B18FF18BA4203D980235B029C466F
:103AA000654424043A04240C121993015C1EA341BA
:103AB0003F0C920E7D191A43AD0115432B0104D51D
:103AC00001235E466A081D40154332007F32002AFA
:103AD00025DD6B0704D00F232B40042B00D00435C9
:103AE0002B0103D53200274B80321D40FE2A94DC87
:103AF0000124A801400AD2B20C406FE78020C00325
:103B0000074207D0054205D128434002400A4446F7
:103B1000FF2263E738434002400AFF225EE70124A8
:103B2000A31A1B2B05DD0C400022002056E75E4641
:103B3000CBE72A002020DA40C31A9D402B005D1EEF
:103B4000AB4113435A0704D00F221A40042A00D075
:103B500004335A0104D5012401220C4000203DE722
:103B600001249B01580A0C40002237E780200124E1
:103B7000C00328434002400A0C40FF222EE7C04603
:103B8000106E0100FFFFFFF741024300C20F490A18
:103B90001B0E00207E2B0DDD9D2B0CDC80200004F5
:103BA0000143952B0ADC9620C31AD9404842002ACB
:103BB00000D108007047034BD018FBE7963B9940B3
:103BC000F4E7C046FFFFFF7FF8B54546DE4657469F
:103BD0004E460C03E0B54E00C90F88460D00610A41
:103BE000440F0C43C70019035800DB0F9B464B0AD8
:103BF000510F0B43760D400D1900D200D84500D16E
:103C0000AEE0351A002D00DCF6E000280FD113439A
:103C100000D1DBE06B1E002B00D037E1BA1A9742CF
:103C2000BF41641A7F42E41B0126170024E0C64B03
:103C30009E424DD080231B041943382D00DD07E13F
:103C40001F2D00DD38E12020431B9A460B00504613
:103C50008340994613004846EB4018430300504602
:103C60008240501E8241E9401A43BA1A611A9742B3
:103C7000A441170064420C1B230262D56402650A4A
:103C8000002D00D1DFE0280001F0CAFD0300083B51
:103C90001F2B00DDD2E020223C00D21A9D40D440F0
:103CA0009F4025439E4200DDC4E09E1B731C1F2BDA
:103CB00000DDF1E0202238002900D21AD8409140DE
:103CC00097402C000143781E8741DC4000260F43BB
:103CD0007B0709D00F233B40042B05D03B1DBB4283
:103CE000BF417F42E4191F0023022CD5964B0136B9
:103CF0009E4200D19AE04546944BFF081C40600765
:103D0000760564020743240B760D00212403230B60
:103D10000C0D8F4A24051C431440330523435B00DC
:103D2000ED075B082B43380019003CBC90469946D0
:103D3000A246AB46F8BD6446044300D111E204003C
:103D400067467B07C6D145466007FF080743E4087E
:103D50007D4B9E4230D024037605240B760DD4E7AC
:103D6000331A9A46002B78DD002831D076488642F7
:103D7000AED08020000401435346382B00DCE9E03C
:103D80000A43511E8A410021D219BA42BF41091982
:103D90007C4217000C192302D3D56B4B01369E428F
:103DA00000D13AE10120694B1C407B0807401F43CA
:103DB000E007074364088BE723003B4300D1CBE1D6
:103DC0008022120314432403240B9EE72E007FE776
:103DD0000800104300D1B4E0581E002800D0DEE0F7
:103DE000BA18BA429B4164185B42E41817000126D6
:103DF0002302A6D50226D5E7002D6ED1701C400502
:103E0000400D012800DCF9E0B81A84468742804161
:103E1000E51A40422D1A280200D489E0D71BBA4285
:103E200092411C1B5242A51AD84629E74546002458
:103E300000276AE7454CF61A2C4049E73D00283830
:103E4000854000272EE7380001F0EAFC20301DE70E
:103E50000A43511E8A41002107E7002B00D0F3E0FE
:103E6000701C43055B0D012B00DCADE0364B984226
:103E700000D1D1E0BA18BA42BF4164187F42E419B8
:103E8000E707520817436408060021E72E488542D9
:103E900000D193E01D00D0E629001F3EF140202B09
:103EA00000D18DE04022D31A9D402F437D1EAF41AB
:103EB00000240F43002644E72B000800203BD84095
:103EC0000300202D00D17DE04020451BA9400A437E
:103ED000511E8A4100211A43C7E6002E50D01A4EC7
:103EE000B04257D080266B429946360434434B4645
:103EF000382B00DDD6E01F2B00DD35E12026F51A3A
:103F00002600AE40B2463E00DE40AC463500564686
:103F10002E436546AF407D1EAF41DC403743D71B83
:103F2000BA4292410C1B5242A41A0600D846A3E69C
:103F3000644667462C4300D0A2E6002500260027F1
:103F400006E71E00C4E6C046FF070000FFFF7FFF34
:103F5000FFFF0F801F2B63DC2020C31A080098404E
:103F60009C46834653461000D840030058461843E9
:103F700063469A40531E9A4153460243D94003E791
:103F800026003E4306D0EB439946002BC7D0944E03
:103F9000B042ACD10C0017000600D84698E6904B12
:103FA0009A450BD08246E7E6002800D09EE0180034
:103FB000104300D1E9E01C001700D846884E87E680
:103FC000002572E7002182E723003B43002E00D04A
:103FD000ABE0002B00D1E7E00B00134300D177E604
:103FE000BA18BA42BF4164187F42E419230200D4D0
:103FF000F2E07C4B17001C40060069E620003843C5
:10400000002ED1D100285BD11C00144300D1A8E0C0
:104010001C001700D8465BE606000024002797E640
:1040200050460B002038C34099465346202B00D100
:1040300095E0402350461B1A99400A43511E8A417D
:104040004B4600211A439FE6002E30D126003E4306
:1040500067D0DB439A46002B1CD0614EB04260D043
:104060005346382B00DD96E01F2B00DD9FE0202615
:10407000F31A26009E409C46B34653463E00DE405F
:1040800033005E461E4363469F407B1E9F4153465E
:10409000DC403743BF189742924164185242A4183B
:1040A000060078E627437C1EA741002437E74C4EE4
:1040B000B04236D080265B4236049A463443CFE77E
:1040C0001800104300D103E6B81A84466745AD4195
:1040D000E01A6D42401B050200D42CE6D71BBA4201
:1040E00092411C1B5242A41AD846F1E51800104315
:1040F00000D163E7F808670707438020E40800035E
:10410000044208D0DD08054205D1D2085907114301
:104110000F002C00D8467B0FE4001C43FF00304EFC
:10412000D6E50C0017000600D2E5002B38D00B00B6
:10413000134300D142E7F808670707438020E408EB
:1041400000030442E7D0CB080342E4D1D208490778
:1041500011430F001C00DEE700270024D5E50021F5
:104160006BE700250027F3E54E462500203EF5408D
:104170004B462E00202B2DD04025ED1AAC40274376
:104180007C1EA74100243743C9E680240025240370
:10419000134E0027DCE527437C1EA741002479E766
:1041A0000C0017000E4E93E50C00170090E55646E4
:1041B0002300203EF34099465346202B0ED0402347
:1041C00056469B1B9C4027437C1EA7414B46002420
:1041D0001F435FE70024D2E71700B2E50024F2E7AF
:1041E000FF070000FFFF7FFFF0B557464546DE465C
:1041F0004E46E0B54C000E0387B0834692461D0044
:104200008046360B640DCF0F002C4FD06F4B9C4275
:1042100035D08023420F1B04F600134333439946E5
:10422000C30098466A4B00269C46002364440393CF
:104230002B031B0B9B466B00ED0F50465B0D01954E
:104240005ED0624A934253D05A46D1008022400F3A
:10425000120402430A4393465246D1005C4A9446F4
:10426000002263443800684084460290E41A1643F2
:104270000F2E00D9B4E0574BB6009B599F46030060
:10428000334399466CD100239846023308260393A2
:10429000CEE7CB464146039A0197022A65D1019B9E
:1042A0004A4C9C460023002298466BE003003343AF
:1042B00099464ED0002E00D1BCE1300001F0B0FA9A
:1042C00003000B3B1C2B00DDACE11D22D31A5A4628
:1042D0000100DA4008398E401300334399465B46AB
:1042E0008B40984600233C4C0026241A03939FE7FA
:1042F00051465A46114329D1002293460232B1E772
:10430000594601431ED05B46002B00D19EE1584622
:1043100001F086FA03000B3B1C2B00DD8FE102004D
:104320005946083A91408B461D21CB1A5146D94037
:104330000B0059460B4351469B469140264B0022A9
:104340001B1A8FE7002301229B468BE7514603226D
:1043500088E700239846013304260024039367E787
:104360000323B14603930C2662E7032A00D15CE2E3
:10437000019B012A00D0E4E113409C460023002465
:104380000022984600211203130B0A0D12051A434E
:104390002305124C40462240134362465B00D2077D
:1043A0005B081343190007B03CBC90469946A246EF
:1043B000AB46F0BD002380229C4612039846034C76
:1043C000E0E70023014C00229846DBE7FF070000EE
:1043D00001FCFFFF506E01000DFCFFFFFFFF0F808F
:1043E000D94500D939E100D134E1002346464D4694
:1043F0009A46013C5B460A0E1B021A430B02170C3D
:10440000039313041B0C3900280090460193FEF718
:1044100055FF0200019B83465A432800390091460C
:10442000FEF7D2FF350C09040D43A9450DD95B46B3
:104430004544013BA84500D93AE1A94500D837E1F8
:1044400002235B429C464544E3444B46EB1A390049
:1044500018000493FEF732FF019B05004343390027
:1044600004989946FEF7B0FF330409041B0C0B4374
:10447000994509D943446A1E984500D91AE19945DE
:1044800000D817E1023D43444A469B1A5A4612049B
:104490002A4303999346100C0A0C914609045A4684
:1044A000090C4E460D001204120C45430591514370
:1044B0007243704352190E0CB218954203D98025ED
:1044C0006D02AC466044150C09041204090C28184E
:1044D0005218834200D2CEE000D1C8E01D1A5346E4
:1044E0009E1AB24592415242AB1A9A46984500D163
:1044F00017E139001800FEF7E1FE019B0500434378
:10450000390050460493FEF75FFF04980B04310C0A
:104510001943884209D941446B1E884500D907E1F7
:10452000884200D804E1023D4144049BCB1A1800A4
:1045300039000493FEF7C2FE019B824643433900D3
:1045400004980193FEF740FF01980B043104090C15
:10455000194388420DD953464144013B884500D94F
:10456000E8E0884200D8E5E002235B429C464144F3
:10457000E244019B2D04CE1A51462943059D4F4626
:104580002A000B04080C1B0C5A4345437B43784319
:104590005B19170CFB189D4203D980256D02AC46B0
:1045A00060441D0C12041B04120C28189B18864230
:1045B00000D293E000D18EE001231943A04BE31811
:1045C000002B00DC99E04A0700D09EE05A46D20159
:1045D00006D55A469B4B1A4080239346DB00E318CE
:1045E000994A934268DD0123029A984C1A400023AD
:1045F000944698460022C5E680224B461203134299
:104600000AD05B46134206D11A431203120BAC4682
:1046100088468E4CB6E64B461A431203120BBC4634
:104620008A4CAFE603005A46283B9A400023914645
:10463000984657E6584601F0F3F8203040E603006C
:104640005246283B9A400021934677E601F0E8F86D
:1046500020305FE6884500D2C7E64B46DE075D089E
:1046600043465B081E434346DB079A46C2E60025E5
:10467000924500D333E7039E5946B446E244B2451F
:10468000AD416D424544EB180139984507D2984237
:1046900000D97FE000D1BCE01D1A8B461FE798458A
:1046A000FAD1039D5545F2D943468B461D1A16E7AC
:1046B0009B46CAE61500E7E65A46C90852070A4370
:1046C0005B0590465C0D5A4601230299520219403F
:1046D000120B8C4656E6002B00D16FE746444A1E6B
:1046E000B04529D91100864200D065E7039A93426C
:1046F00000D061E762E7012149420120C21A382A4D
:1047000021DD029B03409C4638E60F220A40042A22
:1047100000D15BE70A00111D91429241524293443D
:1047200054E7474BE318002BE5DD01225242F2E744
:104730001D00FAE69A461CE7B04239D86ED0110047
:104740003AE702933AE71F2A3CDC20239B1A0C002D
:104750005846994098404B1E99415B46D440D340FF
:10476000204308431A00430709D00F230340042BBA
:1047700005D00100081D88429B415B42D2181302FC
:104780003AD50123029A01241A4000239446984600
:104790000022F7E5022149428C46039DE344AC46E2
:1047A000E244AA45AD416D424544ED182D1A96E606
:1047B0008A1E03994D008D42894149424144761831
:1047C00003958FE71F204042C31A5846D840030084
:1047D000202A28D040205D46821A954029434A1E4F
:1047E00091411943072300220B4009D00F230022D7
:1047F0000B400800042BBDD1010053075202120BDD
:10480000C9081943012388460299002419408C469F
:10481000B8E55245BED88B46002560E6039D9D4213
:10482000C6D3110062E70025D8E780225B46120359
:104830001A43019B1203120B9C468846034CA1E5C8
:10484000FF030000FFFFFFFEFE070000FF07000060
:10485000F0B54F464646D6465C00C0B51F03DB0F99
:104860009A46174B0E034D0084468046360B6D0D5D
:10487000C90F91463F0B640D01209D4208D09C4218
:1048800001D0A5420BD01CBC90469946A246F0BD73
:1048900063463343F7D1AC42F5D13A43F3D101201B
:1048A000BE42F0D1C845EED1514507D0002DEAD126
:1048B00063461E433000461EB041E4E70020E2E7B5
:1048C000FF070000F0B54546DE4657464E46E0B5C8
:1048D0001F033D0B2C4F0E034C00AB465D0084467E
:1048E000360B640DC90F90466D0DDB0FBC422AD00C
:1048F000254FBD422DD0002C0FD1304307008146FB
:1049000078427841C0B2002D17D15F463A4314D1A6
:104910004B460020002B0AD006E0002D02D158465D
:10492000024301D0994218D04842012108433CBCBF
:1049300090469946A246AB46F0BD0028F2D0012031
:10494000013B1843F3E737000743D1D00220404230
:10495000EDE75F461743CED0F8E7AC42E4DC03DA7C
:10496000481E01210843E2E75E45DDD806D000205D
:104970005E45DCD20123481E1843D8E7C445D3D88E
:104980000020C445F6D3D2E7FF070000F0B54E463D
:104990004546DE4657465C00E0B51F03DB0F9946EF
:1049A0002A4B0E034D00C90F8446360B6D0D8B4606
:1049B00090463F0B640D9D4220D0244B9C4222D058
:1049C000002D12D1304343424341DBB2002C1FD0B3
:1049D000002B0CD04B460120013B034318003CBC8C
:1049E00090469946A246AB46F0BD002C16D0CB456A
:1049F00017D05B46594201230B43EFE731000223F6
:104A00000143EBD1D9E7390002231143E6D1D7E7BF
:104A10003A43DDD100230028E0D0EAE73A43E6D16B
:104A2000E7E7A542E5DC05DBBE42E2D807D000237C
:104A3000BE42D3D25946012301390B43CEE7C445C8
:104A4000D7D80023C445F5D3C8E7C046FF07000008
:104A5000F0B557464546DE464E46E0B50C0398464F
:104A60004E00230B87B0070092469B46760DCD0F74
:104A7000002E6BD06D4B9E4235D080245B46420F9A
:104A80002404DB0014431C43C3009946684BA3462F
:104A90009C46002300276644029343461C035A00A9
:104AA000DB0F5046240B520D984600D176E05F4B49
:104AB0009A426DD08023410F1B040B435C49E400F4
:104AC0008C461C43C300002062444146B61869402E
:104AD000721C0191944607430F2F00D9B0E0554A4C
:104AE000BF00D25997465B460343994600D087E002
:104AF00000239B46023308270293CEE742460192E9
:104B0000022867D0032800D10EE2012800D062E11C
:104B1000002300240022994601990140CDB20021D2
:104B200012030B0D120B1B051343434A24051340BC
:104B30001C436400ED0764082C434846210007B07D
:104B40003CBC90469946A246AB46F0BD034399460D
:104B50004FD05B46002B00D189E1584600F060FE43
:104B600003000B3B1C2B00DD7AE11D22D31A3A0017
:104B700001005C46DA4008398C4013008F40234323
:104B80009B46B94600232D4E0027361A029384E730
:104B9000534623432AD10024022096E75346234359
:104BA00020D0002C00D157E1200000F039FE030096
:104BB0000B3B1C2B00DD49E11D21CB1A51460200A5
:104BC000D9405346083A944093400C431B4A121A6A
:104BD00000207AE70125019B144C1D400023002290
:104BE00099469CE70024002201206EE753460320EB
:104BF0006BE700239B4601330427002602934CE712
:104C0000032381460C27029347E7802200230025D7
:104C100012039946054C82E75C464B4602986FE7C3
:104C20005C464B46019502986AE7C046FF070000C4
:104C300001FCFFFF906E0100FFFF0F800DFCFFFFE6
:104C40004A464946170C1A0C1B041B0C0804190091
:104C5000000C41431500884619007D4379430395B4
:104C600089462900150045434D44029545462D0CC3
:104C7000AA46029D5544A94506D98A468021490283
:104C80008946CA4451460391290C049141460904BE
:104C90002D04090C88462900250C24044144240CC9
:104CA0000591210041438846210079438A466843A3
:104CB000414650448146080C48446F43824503D91D
:104CC0008021490289464F44010C894639004944F4
:104CD000029141460F0404993F0C88460004C01914
:104CE00080444146049159460F0C0904090C88463A
:104CF00059438A4639005143894641464A43514601
:104D0000090C8B467B43D2185A44934203D9802323
:104D10005B029B46D94451460904090C8A46414628
:104D200061437C43130C12044B445244A1468A460F
:104D30003C0041466C434D4351464D440F0C7D1998
:104D4000A94503D98021490288464444049F039918
:104D5000B84641448B46834580414142884651468E
:104D600008042F04000C3F18584602991018894671
:104D7000904292414F44BA46524299469346C244A9
:104D8000D144CB448F42BF41C245894199459B41A3
:104D9000934592417F4249422D0C52420F435B4260
:104DA00013437F19FF185B463C19DB0D059A64021B
:104DB0001C43430213435D1EAB415A46C00D0343DF
:104DC00052021343E20156D501205A08034013430F
:104DD000E207134364085A48604400284DDD5A072F
:104DE00009D00F221A40042A05D01A1D9A429B416D
:104DF0005B42E4181300E20104D58020514AC00050
:104E000014406044504A904200DDE3E60125DB088F
:104E100062071A436402019B9146220B4405640D0C
:104E20001D407CE6802259461203114208D01442EC
:104E300006D122431203120B45469946434C6EE6B7
:104E40005B461A431203120B404C68E603005446BB
:104E5000283B9C400023B9E600F0E2FC2030A6E6A7
:104E60000300283B9F400023BB4699468AE600F09A
:104E7000D7FC203074E6B446ADE701252A1A382A5B
:104E800006DD019B00241D4000230022994646E6D2
:104E90001F2A21DC20252000AD1A1E00AB40A840AF
:104EA000D6405D1EAB4130431843D440430709D080
:104EB0000F230340042B05D00300181D98429B418B
:104EC0005B42E418230221D50125019B01241D40EA
:104ED00000230022994622E61F2521006D42281A50
:104EE000C1400800202A1DD05F35AA1A94402343F0
:104EF0005C1EA341072503431D400022002D09D05D
:104F00000F2200241A401800042AD6D10300650796
:104F10006402220BDB082B4301259946019B0024E8
:104F20001D40FCE50024E2E7802201251203224314
:104F300001991203120B0D409946044CEFE5C0464F
:104F4000FF030000FFFFFFFEFE070000FF07000059
:104F5000F0B54646D6464F460C03C0B5CD0F4E00C1
:104F6000610A440F0C43C1005800400D84468A4634
:104F70000F001903500F490A0143C648760DA84691
:104F8000DB0FD200844500D1D8E001204340AB4282
:104F900000D1A6E06046351A002D00DC05E10028AE
:104FA00010D10B00134300D1D7E06B1E002B00D0B3
:104FB0004BE153469F1ABA458041641A4042241A75
:104FC00001261EE0B34B9E4248D080231B041943A8
:104FD000382D00DD19E11F2D00DD4CE120230F00ED
:104FE0005B1B10009A409F40E840531E9A41E940E5
:104FF000074317435346DF1B611ABA45A441644275
:105000000C1B230200D4C5E06402650A002D00D108
:10501000F6E0280000F004FC0300083B1F2B00DD35
:10502000E9E020223C00D21A9D40D4409F40254315
:105030009E4200DDDBE09E1B731C1F2B00DD0AE19E
:1050400020223800D21A290097402C009140D840E5
:105050007A1E9741DC40002601430F437B0709D0AD
:105060000F233B40042B05D03B1DBB42BF417F4279
:10507000E4191F00230225D5864B01369E4200D13C
:10508000AFE0854B01251C4043466207FF086402E0
:1050900076051743240B760D1D4000212403230BB6
:1050A0000C0D7E4A24051C431440330523435B004A
:1050B000ED075B082B43380019001CBC904699464D
:1050C000A246F0BD012543466207FF081743E408E6
:1050D0001D40704B9E4236D024037605240B760D7E
:1050E000DBE76346F31A002B00DC94E060460028FF
:1050F00035D068488642B1D080273F043943382BE9
:1051000000DCFDE00A43170000217A1E9741574456
:1051100057458041091944420C1923023AD55D4B89
:1051200001369E4200D14BE101225B4B1C407B08C3
:1051300017401F43E207174364088FE70800104336
:1051400000D024E721E723003B4300D1B9E18022CE
:10515000120314432403240B9FE72E007EE708006C
:10516000104300D1CAE0581E8446002800D0E7E072
:1051700052445245804164184042241817000126C9
:10518000230207D50226CFE764462C4300D1B3E1C2
:105190002C0067467B0700D062E76307FF081F43C8
:1051A00001254346E4081D4093E7002D78D1751C86
:1051B0006D056D0D012D00DCF2E05046801A824530
:1051C000BF41651A7F42ED1B8446280200D48CE063
:1051D0005046171ABA4292410C1B5542651B98461D
:1051E00014E70125434600241D40002755E72A4CBB
:1051F000F61A2C4032E73D0028388540002717E793
:10520000380000F00DFB203006E70A4317000021AC
:105210007A1E9741EEE6002B00D0E5E0731C9C4619
:105220005B055B0D012B00DC9FE01A4B9C4500D118
:10523000C5E0524452458041641840422418E707B3
:10524000520817436408664608E71248854200D1B1
:1052500085E01D00BCE629001F3EF140202B00D157
:105260007FE04022D31A9D402F437D1EAF41002492
:105270000F4300268EE72B000F00203BDF40202D40
:1052800071D040235D1BA9400A43511E8A41002171
:105290001743AFE6FF070000FFFF7FFFFFFF0F8010
:1052A000002E3ED0B34EB44545D0802636046D4224
:1052B0003443382D00DDA8E01F2D00DD1FE120263E
:1052C00027005046761BB740E84007435046B040A1
:1052D000461EB041EC403843171ABA4292410C1BAB
:1052E0005242A41A664698468BE6644667462C43AB
:1052F00000D08BE6002500260027EAE61E00ADE67A
:105300001F2B60DC2027F81A0F008446874010000E
:10531000D840074360468240501E8241D94017431F
:10532000F5E626005046064305D0ED43002DD3D0C8
:10533000904EB445BDD10C001700664698468DE6E8
:105340008C4883420BD06346D9E6002D00D096E00E
:105350000800104300D1E2E00C0017009846854E8B
:105360007CE6002580E700218EE7230050460343BA
:10537000002E00D0A8E0002B00D1DEE00B0013438C
:1053800000D16BE6524452458041641840422418D3
:105390001700230200D4FDE6774B66461C405DE60D
:1053A000250050460543002ECFD1002D4FD10C00D3
:1053B000144300D1A0E00C00170098464EE6664664
:1053C0000024002785E61F000800203FF840070062
:1053D000202B00D18EE04020C31A99400A43511E71
:1053E0008A410021174392E6002E14D12600504630
:1053F000064362D0DB43002B5CD187189742924171
:1054000064185242A418664687E650462043441E5C
:10541000A041002460E7574EB4454ED080263604A4
:105420005B423443382B00DD7FE01F2B00DD8BE037
:10543000202627005046F61AB740D840074350466A
:10544000B040461EB0410743DC40BF18D6E70D0010
:10545000154300D102E65046801A8245BF41651AC5
:105460007F42ED1B8446280200D48DE65046171A71
:10547000BA4292410C1B5242A41A9846EEE50D0026
:10548000154300D16BE750466707C00807438020EB
:10549000E4080003044207D0CD08054204D12C00E3
:1054A0009846D70849070F437B0FE4001C43FF00D1
:1054B000304ED3E52F4EB445B4D10C0017006646EC
:1054C000CCE500270024E8E5002B39D00B0013437E
:1054D00000D144E7C008670707438020E4080003C1
:1054E0000442E1D0CB080342DED1D70849070F437D
:1054F0001C00D9E7002171E700250027E9E52E000F
:105500002700203EF740202D2FD04026751BAC40B1
:1055100050462043441EA04100243843DCE680244A
:1055200000252403134E0027D3E5504620430700EF
:10553000781E87410024BF1860E70C0017008DE536
:105540000C0017000B4E89E51E002700203EF74097
:10555000202B0CD04026F31A9C4050462043441E7A
:10556000A04107430024BF1848E70024D0E70024E7
:10557000F3E7C046FF070000FFFF7FFF30B5134D84
:105580000A034B00120B5B0DC90F0024AB4210DD68
:105590000F4CA3420FDC80240E4D64032243ED1A0E
:1055A0001F2D0BDD0C48C31ADA405442002900D1EC
:1055B0001400200030BD094BCC18FAE7084CE84035
:1055C000A44663449A400243EFE7C046FE0300004E
:1055D0001D0400003304000013040000FFFFFF7FE0
:1055E000EDFBFFFF70B5002830D0C317C4185C4036
:1055F000C50F200000F014F9174B184A1B1AD21AD5
:105600001F2A18DD164AD21A9440002224035B0593
:10561000240B5B0D0021100024030A0D240B12053E
:105620002243104C1B05224013435B00ED075B082F
:105630002B43190070BD210091400A000B21081A6C
:10564000C4405B052403240B5B0DE3E70025002326
:1056500000240022DEE7C0461E04000033040000E0
:1056600013040000FFFF0F804100090E4B1C70B5B2
:10567000DBB24602750AC40F012B14DDE0239B0048
:105680006D07360BCB1800210A0D280012051C4DA2
:1056900032435B052A405B0813435B00E4075B0869
:1056A0002343190070BD002914D1002D1ED02800FD
:1056B00000F0B6F80A281CDC0B232A001B1ADA407B
:1056C000030015339D400F4B12031B1A5B05160B8D
:1056D0005B0DD8E7002D06D0320B802636036D0710
:1056E0001643094BCFE7084B0026CCE700230026E2
:1056F000C9E703002A000B3B9A400025E3E7C046B8
:10570000FFFF0F8089030000FF070000F0B54C0089
:10571000640D0B03621C450F5B0A52052B43C90F36
:10572000C500520D012A28DD3A4AA618FE2E1BDCC0
:10573000002E3EDD80010200501E82416D0F2A4383
:10574000DB0013435A0704D00F221A40042A00D06A
:1057500004338022D2041A405AD00136FF2E03D0DF
:105760009B015B0AF4B201E0FF2400235802E40528
:10577000400AC90720430843F0BD002C07D01D4351
:10578000F2D08020DB0080040343FF26DAE72B43BE
:1057900003D00523DB08FF2C03D05B025B0AE4B2D5
:1057A000E4E7002B32D08020C00303435B025B0A96
:1057B000DCE73200173214DB80221E271204134369
:1057C000BF1B1F2F0FDC144A944664442A00A540D7
:1057D0002E00A340751EAE41FA403343134300260A
:1057E000B0E70024D5E702225242961B1A00F2408D
:1057F000202F09D0094884466444A3402B435D1EF2
:10580000AB41002613439DE70023F7E70023ADE7F4
:105810003400BFE780FCFFFF82FCFFFFA2FCFFFF1C
:105820001C2101231B04984201D3000C10391B0AD0
:10583000984201D3000A08391B09984201D3000994
:10584000043902A2105C40187047C04604030202EB
:1058500001010101000000000000000070B50026F9
:105860000C4D0D4C641BA410A64209D1002611F06A
:105870002FFB0A4D0A4C641BA410A64205D170BD33
:10588000B300EB5898470136EEE7B300EB58984762
:105890000136F2E7DC6E0100DC6E0100DC6E010017
:1058A000E06E0100FFD8FFE000104A4649460001C3
:1058B0000101005900590000FFDB00430003020210
:1058C000030202030303030403030405080505049C
:1058D00004050A070706080C0A0C0C0B0A0B0B0D33
:1058E0000E12100D0E110E0B0B10161011131415B5
:1058F00015150C0F171816141812141514FFDB00C9
:10590000430103040405040509050509140D0B0DE5
:105910001414141414141414141414141414141447
:105920001414141414141414141414141414141437
:105930001414141414141414141414141414141427
:105940001414FFC0001108011001E003011100024E
:105950001101031101FFC4001D0000020203010137
:10596000010000000000000000000506040702031B
:1059700008010009FFC400461000020103030204ED
:1059800004040404040502060301020304051106CD
:105990001221003107132241081451612332718111
:1059A000154291A152B1C1D11633E1F009246272BE
:1059B000F11743258292A2B2C2345363FFC4001A86
:1059C00001000203010100000000000000000000CF
:1059D0000002030001040506FFC4003811000202A2
:1059E0000103020306060202020203010001020093
:1059F0001103122131044113225105326171A1F0CA
:105A00008191B1C1D1E11442235233F115430634DF
:105A10006272FFDA000C03010002110311003F0063
:105A2000E14A746FC8AAC3706C291C647B67DFFEEF
:105A30009D193BC09BDA313BC5E5E4BB0280860083
:105A400031FB7B7442FBCB266FA4902961226D2829
:105A5000A3D59C82738FEC73D4693E1372950EE1CB
:105A6000D818D88241FCA38E40FB6474C5E20303BE
:105A7000727A7ADD4B00FC7F29C7F43D30518BE30D
:105A8000985688C0DE5899991DD815556C3391C029
:105A900018C73FB740FF000E2306C378C14AFE95E2
:105AA0001979B7370E0E142FFA741A2B7A87A84972
:105AB000D496B264CB0662E39017863F5CFB1E7AF5
:105AC0007AB77314D5DA40BDF879457CA7612347CE
:105AD0004D5A8CC3CC12703DC03F5078F6EE7EFD1F
