S015000066743878785F636861707465722E73726563C7
S21400000020210020E1140000D9150000D9150000B9
S21400001000000000000000000000000000000000DB
S214000020000000000000000000000000D9150000DD
S2140000300000000000000000D9150000D9150000DF
S214000040D9150000D9150000D9150000D9150000F3
S214000050D9150000D9150000D9150000D9150000E3
S214000060D9150000D9150000D9150000D9150000D3
S214000070D9150000D9150000D9150000D9150000C3
S214000080D9150000D9150000D9150000D9150000B3
S214000090D91500000000000000000000D91500007F
S2140000A0D9150000D9150000D9150000D915000093
S2140000B00000000010B5064C2378002B07D1054B36
S2140000C0002B02D0044800E000BF0123237010BDBF
S2140000D0E40000200000000050520100084B10B55C
S2140000E0002B03D00749084800E000BF0748036814
S2140000F0002B00D110BD064B002BFBD09847F9E72C
S21400010000000000E800002050520100505201009C
S2140001100000000080B584B000AF0200FB1D1A701E
S214000120FB1D1B789BB2094A19001000084B984724
S21400013003001A000E23FB181A800E23FB181B88D8
S214000140DBB21800BD4604B080BDC04600100042B9
S214000150750C000090B583B000AF040008001100D5
S214000160FB1D221C1A70BB1D021C1A707B1D0A1C6C
S2140001701A7000210E200D4B9847FB1D1B781800A7
S2140001800B4B9847BB1D1B781800094B98477B1DE7
S2140001901B781800064B984701210E20034B984702
S2140001A001231800BD4603B090BDC046990B000061
S2140001B01501000080B584B000AF78600A00FB1C13
S2140001C01A707B68802212041343FB6000210E2005
S2140001D0104B9847FB681B0CDBB218000E4B984779
S2140001E0FB681B0ADBB218000B4B9847FB68DBB2B8
S2140001F01800094B9847FB1C1B781800064B9847BD
S21400020001210E20034B984701231800BD4604B079
S21400021080BDC046990B00001501000080B584B073
S21400022000AF78600A00BB1C1A807B68802212042C
S2140002301343FB6000210E20144B9847FB681B0CF1
S214000240DBB21800124B9847FB681B0ADBB218009B
S2140002500F4B9847FB68DBB218000D4B9847BB1C4A
S2140002601B88DBB218000A4B9847BB1C1B881B0A6E
S2140002709BB2DBB21800064B984701210E20034BB9
S214000280984701231800BD4604B080BD990B0000B6
S2140002901501000080B588B000AF786039607B68D3
S2140002A0802212041343BB61BB691B0CDAB20C2319
S2140002B0FB181A70BB691B0ADAB20C23FB185A70BB
S2140002C0BB69DAB20C23FB189A703B68DAB20C23CF
S2140002D0FB18DA703B681B0ADAB20C23FB181A719B
S2140002E03B681B0CDAB20C23FB185A713B681B0EDA
S2140002F0DAB20C23FB189A7100210E20134B984794
S2140003000023FB6116E0124B0C22B918FA698A1812
S21400031012789A62C0460E4B1B7EDBB21A0002238E
S2140003201340F8D00A4B9A6A1723FB181A70FB6919
S2140003300133FB61FB69062BE5DD01210E20034B33
S214000340984701231800BD4608B080BD990B0000F1
S2140003500010004290B585B000AF78607B68FB6007
S21400036000210E201B4B9847FB681B0CDBB21800C5
S214000370194B9847FB681B0ADBB21800164B9847C8
S214000380FB68DBB21800144B98470020124B9847C6
S2140003900B23FC180020104B9847030023700A23F9
S2140003A0FC1800200C4B98470300237001210E20F8
S2140003B0084B98470A23FB181B789BB21B029AB27D
S2140003C00B23FB181B789BB2D3189BB21800BD46B4
S2140003D005B090BD990B00001501000080B584B0F3
S2140003E000AF78600A00BB1C1A80BB1C1A887B68AA
S2140003F0D318FB60FB68064A934204D9FB68054A9B
S21400040094466344FB60FB681800BD4604B080BD9C
S214000410FF0F000000F0FFFF80B584B000AF0200C1
S214000420BB1D1A800E4B18000E4B984703001A008F
S214000430BB1D1B889B1A9AB20E23FB181205120DC1
S2140004401A800C23FB180E22BA18128806498A1A3C
S2140004501A800C23FB181B881800BD4604B080BD0C
S214000460F820300055030000FC0F000090B585B062
S21400047000AF78600A00BB1C1A807B689BB20E2215
S214000480BC181800074B9847030023800E23FA1861
S214000490BB1C12881B889A42EFD3C046BD4605B0E7
S2140004A090BDC0461904000080B582B000AF0200BF
S2140004B0BB1D1A803B1D0A1C1A80BA1D3B1D1288E4
S2140004C01B88D3189AB2BB1D1205120D1A80BB1DCD
S2140004D01B8803339AB2BB1D07490A401A80BB1D0E
S2140004E01B88064A19001000054B9847BB1D1B8841
S2140004F01800BD4602B080BDFC0F0000FC20300096
S2140005001D02000090B583B000AFBC1D0F4B180055
S2140005100F4B9847030023803C1D0E4B18000C4BD6
S2140005209847030023803A1DBB1D12881B889A42F9
S214000530EBD1BC1C074B1800054B984703002380E3
S214000540BB1C1B881800BD4603B090BDF8203000C9
S21400055055030000FC20300090B589B000AFF8606D
S21400056008007A6019000A23FB18021C1A80082368
S214000570FB180A1C1A800023FB610023BB61FB6882
S2140005808022120413437B610823FB181B88FB613F
S2140005900A23FB181B881800424B984703001A00D2
S2140005A0FB699A4207D20A23FB181B8818003D4BAA
S2140005B098470300FB610A23FB181B88FA6992B26E
S2140005C011001800384B984700210E20374B9847EB
S2140005D00A23FB181B88C222920394466344802297
S2140005E0120413437B617B691B0CDBB21800304B93
S2140005F098477B691B0ADBB218002D4B98477B692E
S214000600DBB218002A4B98470023BB6115E0294A45
S2140006107B68591C79601B789362C046254B1B7E0D
S214000620DBB21A0002231340F8D0224B9A6A132337
S214000630FB181A70BB690133BB61FB695A1EFA616D
S214000640002BE4D1BB69FB6101210E20174B9847B4
S214000650FB699AB20A23FC180A23FB181B881100B0
S2140006601800154B9847030023800A23FC18134BE9
S214000670984703002380FB699AB20823FB180821D9
S214000680791809888A1A1A800823FB181B88002BF9
S21400069000D079E70A23FB181B881800BD4609B06E
S2140006A090BDC046190400006D040000990B0000C0
S2140006B01501000000100042A90400000505000016
S2140006C0B0B58AB000AFF860B9607A603B600023CE
S2140006D0BB6100237B6100233B620023FB615E4B12
S2140006E018005E4B98470300BB615D4B18005B4BE0
S2140006F0984703007B617A69BB699A42EFD126234B
S214000700FB187A691A802623FB181B88C2229203DC
S21400071094466344534A11001800534B98472623C7
S214000720FB181B8804211800504B9847020026230C
S214000730FB181A802623FB181B88C22292039A18DD
S214000740DC235B4219001000474B98472623FB1812
S2140007501B8804211800454B984702002623FB18E7
S2140007601A802623FB181B88C222920394466344F1
S2140007707A68110018003C4B98472623FB181B8804
S21400078004211800394B984702002623FB181A80CC
S2140007902623FB181B88C222920394466344022138
S2140007A01800314B98472623FB181B880421180095
S2140007B02E4B984702002623FB181A800023FB6165
S2140007C026E03B682A4A934203D980239B013B627A
S2140007D001E03B683B622623FB181B88C22292037B
S2140007E09818BA68FB69D2183B6A9DB22623FC1893
S2140007F02623FB1819882B001E4DA84703002380CC
S214000800FA693B6AD318FB613A683B6AD31A3B60C5
S2140008103B68002BD5D12623FB181B88104A1900ED
S2140008201000154B98470C4B18000C4B98470300CC
S214000830BB610B4B1800094B984703007B617A6934
S214000840BB699A42EFD12623FB187A691A80C04604
S2140008501800BD460AB0B0BDF820300055030000B1
S214000860FC20300000FFFFFF95020000DD030000C3
S214000870FF1F0000590500001D02000080B500AFF4
S214000880024B9847C046BD4680BDC046C50C00001A
S21400089080B500AF024B9847C046BD4680BDC046F7
S2140008A0190D000080B500AF054B5B78DBB25BB27C
S2140008B0002B01DA012300E000231800BD4680BDAE
S2140008C0000C004080B584B000AF78600023FB6069
S2140008D00023BB607B685B781B027A681278134340
S2140008E01A007B685B681343FB607B681B891B02EE
S2140008F07A6812781343BB60C0460B4B9847031EBA
S214000900FBD10A4B98470A4BBA689A60C046064B1A
S2140009109847031EFBD1064BFA685A60054B98476A
S214000920C046BD4604B080BDA50800007D08000096
S214000930000C00409108000080B584B000AF7860DD
S2140009400E23FB1800221A807B685B781B021AB203
S2140009507B681B781BB213431AB27B685B881BB29A
S21400096013431AB20E23FB181A80064B9847064A02
S2140009700E23FB181B885380044B9847C046BD4681
S21400098004B080BD7D080000000C00409108000007
S21400099080B582B000AF00237B600CE07A6813005D
S2140009A05B009B189B000F4A9B1818000E4B98473D
S2140009B07B6801337B607B68082BEFDD00237B6060
S2140009C009E07B689A00094BD3181800084B984733
S2140009D07B6801337B607B68172BF2DDC046BD4623
S2140009E002B080BD00000020C50800006C0000209A
S2140009F03909000080B584B000AF0200FB1D1A70F4
S214000A000023FB60FB1D1B782022134001D000232F
S214000A101BE0FB1D1B78C0221340402B0BD002DCD2
S214000A20002B05D010E0602B08D0802B09D00BE0FF
S214000A30084BFB6008E0084BFB6005E0074BFB60DB
S214000A4002E0074BFB60C046FB681800BD4604B0DA
S214000A5080BDC0460044004180440041004500413E
S214000A608045004180B586B000AF786000237B618A
S214000A701223FB1800221A801023FB1800221A806B
S214000A807B68002B02D101235B427CE07B681B78ED
S214000A9018003F4B98470300FB60FB68002B02D111
S214000AA001235B426FE07B681B781A001F2313400C
S214000AB001229A4013007B611223FB187A691A8080
S214000AC07B691A0C1023FB181A8000237B617B6855
S214000AD05B78012B08D17B68DB781A067B691343A9
S214000AE02C4A13437B6123E07B689B781A004023E3
S214000AF0134001D1002201E080239A027B689B7894
S214000B00190020230B4001D1002301E08023DB02E3
S214000B101A437B689B78190010230B4001D10023F1
S214000B2001E08023DB0313431A007B6913437B61D8
S214000B30FB681B687A68927852B2D2B2D209D2B2F7
S214000B4011007A68127810001F22024091400A00B5
S214000B501A43FB681A601223FB181B887A69134332
S214000B607B611223FB181A887B691A43FB689A621A
S214000B701023FB181A887B691343802212061A4337
S214000B80FB689A6200231800BD4606B080BDC046CA
S214000B90F50900000000015080B584B000AF0200E7
S214000BA0FB1D1A70BB1D0A1C1A70FB1D1B78180053
S214000BB0104B98470300FB60FB68002B02D1012313
S214000BC05B4213E0BB1D1B78012213405A1E934163
S214000BD0DBB2BB60FB1D1B781F221340BA689A402D
S214000BE01300BB60FB68BA681A6100231800BD4694
S214000BF004B080BDF509000080B582B000AF786013
S214000C007B681B6802221A437B681A60012318005F
S214000C10BD4602B080BD000080B584B000AFF8606D
S214000C20B9607A601A00FB1C1A70FB68074A1A60E3
S214000C30FB68802292025A60FB68FA1C12781A73CC
S214000C4001231800BD4604B080BDC0460C0030002D
S214000C5080B582B000AF78607B681B7EDBB21A007E
S214000C60022313405A1E9341DBB21800BD4602B061
S214000C7080BD000080B584B000AF78600A00BB1C61
S214000C801A80BB1C1B88DB05DA0D7B689A62C0469F
S214000C907B6818000A4B984703001A00012353404C
S214000CA0DBB2002BF4D17B689A6A0F23FB181A700C
S214000CB00F23FB181B781800BD4604B080BDC04645
S214000CC0510C000080B582B000AF104B1B68002BA3
S214000CD012D1EFF310837B607B68002B09D172B6CC
S214000CE0BFF35F8F0A4B00221A700A4B01221A705C
S214000CF002E0084B00221A70044B1B685A1C034B78
S214000D001A60C046BD4602B080BDC0460001002045
S214000D10CC0000200401002080B500AF0B4B1B6800
S214000D205A1E0A4B1A60094B1B68002B0AD1084B47
S214000D301B78DBB2002B05D0064B01221A70BFF3DE
S214000D405F8F62B6C046BD4680BDC046000100202B
S214000D5004010020CC00002080B582B000AF78608F
S214000D607B6801225A607B6800225A707B680622E4
S214000D701A707B6800221A727B6800225A72C0467C
S214000D80BD4602B080BD80B582B000AF78607B689B
S214000D9003221A707B6800225A707B6801229A70C0
S214000DA0C046BD4602B080BD80B582B000AF02002E
S214000DB0FB1D1A70034AFB1D1B781372C046BD4606
S214000DC002B080BD0004004080B582B000AF0200D3
S214000DD0FB1D1A70BB1D0A1C1A70FB1D1B78012B0D
S214000DE008D0022B0BD0002B0ED10B4ABB1D1B7854
S214000DF053720BE0084ABB1D1B78937206E0064A46
S214000E00BB1D1B78D37201E0172300E000231800F7
S214000E10BD4602B080BDC0460004004080B582B02A
S214000E2000AF0200FB1D1A70084AFB1D1B780F213D
S214000E300B40D9B253680F20014049001E2083435F
S214000E400B435360C046BD4602B080BD0040004123
S214000E5080B500AFC046044BDB6810221340FAD0C2
S214000E60C046BD4680BDC0460008004080B500AF05
S214000E700C4B02229A840C4B98470A4A0B4B9B68F1
S214000E80D362084A094B5B689362064B00229A8439
S214000E90054B9847034A054B1B689BB29384C04694
S214000EA0BD4680BD00080040510E0000080100202D
S214000EB080B584B000AF78601A4B1B6AFB607B6815
S214000EC01B781A1C03231340DAB20D23FB180321E8
S214000ED00A4010001A7803218A43111C021C0A4398
S214000EE01A707B689A780C23FB18D0011A787F2139
S214000EF00A40111C021C0A431A707B685A780C239D
S214000F00FB1801210A4090011A7840218A43111CDF
S214000F10021C0A431A70034BFA681A62C046BD46A2
S214000F2004B080BD0008004080B582B000AF786095
S214000F307B681B7A9B021B041A0C7B685B899B05EB
S214000F409B0D1A432A4B5A607B689A797B68DB793B
S214000F501343DBB21A007B685B8813437A68928877
S214000F601A437B685B78DB011A43214B1A607B6867
S214000F701B78042B16D17B681B7B9B061A007B68AC
S214000F80DB891B0419001B4B0B4013437A68128A3B
S214000F901A43174B9A60164B1B687A6812781A43E6
S214000FA0134B1A607B681B78202B1CD17B681B7B3D
S214000FB09B061A007B68DB891B0419000D4B0B404F
S214000FC013437A68128A1A43094B9A60084B1B68C7
S214000FD07A68127804210A43D2B213438022D200E0
S214000FE01A43034B1A60C046BD4602B080BDC046D9
S214000FF0080100200000FF0380B582B000AF0200A9
S214001000FB1D1A70FB1D1B78082B3BD89A00214B42
S214001010D3181B689F46204B1F4A126A02210A43B8
S2140010201A62002331E01C4B1B4A926902210A43D4
S2140010309A6129E0184A184B1B8A9BB202210B437F
S2140010409BB2138220E0144A134B9B8A9BB2022168
S2140010500B439BB2938217E0104B1B6802221A4385
S2140010600E4B1A600E4B98470EE00B4A0A49442373
S214001070CB5CDBB202210B43D9B24423D15403E04C
S214001080002302E0172300E000231800BD4602B04C
S21400109080BDC0460C520100000800400801002038
S2140010A06D0E000080B582B000AF3B0001221A70C2
S2140010B000237B6009E07B68DBB23A001100180071
S2140010C0054B98477B6801337B607B68242BF2D9FD
S2140010D0C046BD4602B080BD0514000080B5A0B075
S2140010E000AF274BC222D2009A600020254B9847BB
S2140010F0254B98477C23FB181800244B98477C23E5
S214001100FB1800221A707C23FB1801229A707C239D
S214001110FB1800225A707C23FB1818001C4B9847BB
S21400112006201C4B98471C4B984700201B4B9847A3
S214001130002100201A4B984700210120184B9847A1
S21400114000210220164B98473B1D1800154B984768
S2140011503B1D06221A703B1D01225A603B1D0022D1
S2140011601A723B1D00225A723B1D190000200E4BBE
S214001170984700200D4B9847C046BD4620B080BD1E
S214001180000800401D0E0000A5100000870D00009E
S214001190B10E0000F90F000055120000A90D000066
S2140011A0C90D0000590D000085120000A9130000AB
S2140011B080B582B000AF02003960FB1D1A70FB1DBF
S2140011C01B78012B0AD0022B0FD0002B14D10E4B0C
S2140011D00D4A91693A680A439A610FE00A4B0A4A37
S2140011E0D1693A680A43DA6108E0074B064A116A91
S2140011F03A680A431A6201E0172300E00023180049
S214001200BD4602B080BDC0460004004080B500AFB9
S214001210024B9847C046BD4680BDC046C50C000080
S21400122080B500AF024B9847C046BD4680BDC0465D
S214001230190D000080B500AF054B5B78DBB25BB2E2
S214001240002B01DA012300E000231800BD4680BD14
S214001250000C004080B500AF08210020074B9847DF
S214001260074B01221A70C046054B1B78DBB21A00EA
S21400127001231340F8D1C046BD4680BDB111000021
S214001280000C004080B586B000AF02003960FB1D40
S2140012901A70FB1D1B787B61FB1D1B783B613B684E
S2140012A01B781B021A007B6913437B613B685B78E3
S2140012B0002B04D07B698022D20213437B613B68FB
S2140012C05B7A002B04D07B698022120313437B6178
S2140012D03B685B68012B2CD93B685A683B685B68A7
S2140012E0013B13401AD10023FB600223BB6005E0DC
S2140012F0FB680133FB60BB685B00BB603B685A68F9
S214001300BB689A42F4D8FB681B023A6913433B61F8
S2140013107B698022520313437B610AE03B685B686B
S2140013201B023A6913433B617B6980229202134396
S2140013307B613B681B7A002B04D07B69802292037A
S21400134013437B61C046134B9847031EFBD1124BD9
S2140013509847124AFB1D1B781370C0460D4B9847E2
S214001360031EFBD10E4B3A699A60C046094B98475C
S214001370031EFBD10A4B0A4A5168802252021140D2
S2140013807A690A435A60074B9847C046BD4606B07E
S21400139080BDC046351200000D120000080C00404B
S2140013A0000C00402112000080B582B000AF0200A1
S2140013B0FB1D1A70C0460E4B9847031EFBD10D4B03
S2140013C098470D4AFB1D1B781370C046084B98477C
S2140013D0031EFBD1094B094A5268802149020A4381
S2140013E05A60074B9847C046BD4602B080BDC0460F
S2140013F0351200000D120000040C0040000C0040E6
S2140014002112000080B584B000AF02003960FB1DD9
S2140014101A70FB1D1B78FB603B681B781B021A00CA
S214001420FB681343FB60FB1D1B781800044B9847B2
S214001430044BFA6892B25A80C046BD4604B080BDDE
S21400144049140000000C004080B584B000AF0200D4
S214001450FB1D1A701C4B98471C4AFB1D1B7813700B
S2140014601B4B5B881B051B0FDBB2FB60184A5388BF
S21400147018490B405380164A154B5B889BB2164999
S2140014800B409BB25380C046114B5B889BB21A0040
S2140014908023DB011340F7D10D4AFB68DBB2191C31
S2140014A00F230B40D9B25388081C0F2101400802B5
S2140014B008490B40191C031C0B435380074B9847E5
S2140014C0C046BD4604B080BD0D120000020C0040B0
S2140014D0000C0040FFF0FFFFFFBFFFFF21120000DF
S2140014E080B582B000AF2F4B7B602F4B3B607A6895
S2140014F03B689A420CD007E03B681A1D3A607A684F
S214001500111D796012681A603A68284B9A42F3D324
S214001510274B3B6004E03B681A1D3A6000221A60C5
S2140015203A68244B9A42F6D3234B7B60234B7A6867
S214001530FF218A439A60224A90235B000221D15001
S214001540204AD37803218B43191C02230B43D37004
S2140015501C4AD3780C218B43191C08230B43D370E9
S214001560194A937B30218B43191C20230B4393731A
S214001570154A937B0C218B43191C08230B4393734A
S214001580114A937B03218B43191C02230B4393734D
S2140015900E4A536880210B4353600D4B98470D4B02
S2140015A09847FEE75052010000000020E4000020AB
S2140015B0E4000020200100200000000000ED00E014
S2140015C000700041005000410048004100400041CA
S2140015D0851C0000A117000080B500AFFEE780B5AF
S2140015E082B000AF78607B6801225A607B68002278
S2140015F05A707B6806221A707B6800221A727B6813
S21400160000225A72C046BD4602B080BD80B582B088
S21400161000AF78607B6800221A707B6800225A80D0
S2140016207B6800229A807B6800229A717B68002281
S214001630DA717B6801225A707B6807221A727B680F
S2140016403F225A817B6801221A737B680122DA8165
S2140016507B6806221A82C046BD4602B080BD0000E6
S21400166080B582B000AF02003960FB1D1A70FB1D0A
S2140016701B78012B0AD0022B0FD0002B14D10E4B57
S2140016800D4A91693A680A439A610FE00A4B0A4A82
S214001690D1693A680A43DA6108E0074B064A116ADC
S2140016A03A680A431A6201E0172300E00023180094
S2140016B0BD4602B080BDC0460004004080B582B082
S2140016C000AF0200FB1D1A70084AFB1D1B780F2195
S2140016D00B40D9B253680F20014049001E208343B7
S2140016E00B435360C046BD4602B080BD004000417B
S2140016F080B582B000AF7860C0467B685A1E7A60BC
S214001700002BFAD1C0461800BD4602B080BD0000CE
S21400171080B586B000AF3B1D1800054B98473B1DB3
S2140017201800044B9847C046BD4606B080BDC0466C
S2140017300D160000290F000090B585B000AF0F23EE
S214001740FC180520114B984703002370104B984750
S2140017500E23FC1807200D4B984703002370022029
S2140017600C4B98473B0018000B4B98473B00072252
S2140017701A703B0001225A603B0019000020074BFC
S2140017809847C046BD4605B090BDC046F90F00005C
S21400179011170000BD160000DF15000085120000BE
S2140017A090B585B000AF0023FB600023BB6000232C
S2140017B07B60FC4B9847FC4B9847FC4B9847FC4B90
S2140017C0984710210220FB4B984720210220F94B16
S2140017D09847F94B1800F94B9847F94B1800F74B08
S2140017E09847F84B1800F54B9847F74B1800F34B03
S2140017F0984780239A02C0239903F4480023F44CA8
S214001800A047F24B1800F34B9847F34B1800F34BE6
S2140018109847F14B1800F14B9847EF4B1800EF4BE9
S2140018209847ED4B1800ED4B9847002200214820C2
S214001830EB4B9847002200210020E94B9847E64BE7
S2140018401800E64B9847E44B1800E44B9847E24BE9
S2140018501800E24B9847E04B1800E04B9847DE4BE9
S2140018601800DE4B9847DC4B1800DC4B9847DA4BE9
S2140018701800DA4B9847D84B1800D84B9847D94BE6
S21400188001211800D84B9847D84B00211800D84B98
S2140018909847D84B00211800D54B9847D14B0021CC
S2140018A01800D14B9847F0235B00D34A190010006C
S2140018B0CF4B984789239B00D04A19001000CC4B89
S2140018C09847CF4B2B211800C94B9847CD4B00218A
S2140018D01800C74B9847CC4B29211800C44B984793
S2140018E088235B00C94A19001000C14B9847922311
S2140018F05B00C74A19001000BD4B9847C54B0C212A
S2140019001800BB4B9847C44B00211800B84B9847AB
S214001910C24B0A211800B64B9847C14B002118004D
S214001920B14B9847BF4B01211800AF4B9847802317
S2140019309A04C0239B0311001800BB4B9847BB4A70
S214001940BB4B11001800B84B9847BA4B0021180043
S214001950B54B9847B84B02211800A34B9847B74B96
S21400196080211800A04B9847B54B802118009E4B4D
S2140019709847B44B802118009B4B9847B24B0721E1
S2140019801800994B9847AF4B40211800964B984744
S214001990964B1800AD4B98470300BB60954B18005C
S2140019A0AA4B984703007B607A68BB689A42EFD1DF
S2140019B07B68FB60A64BA74900220120A64CA047E7
S2140019C0FB68C222920394466344A44A110018009E
S2140019D0954B9847FB6804211800A14B98470300D5
S2140019E0FB60FB68C2229203944663449D4A110042
S2140019F018008D4B9847FB6804211800984B9847B1
S214001A000300FB60FB68C222920394466344874A45
S214001A1011001800844B9847FB6804211800904B6F
S214001A2098470300FB60FB68C22292039A189C2327
S214001A309B05190010007C4B9847FB680421180092
S214001A40874B98470300FB60FB68C22292039446CC
S214001A506344854A11001800734B9847FB680421BD
S214001A6018007F4B98470300FB60FB68C222920376
S214001A70944663447D4A110018006B4B9847FB68F8
S214001A8004211800764B98470300FB60FB68C222CF
S214001A9092039A1880235B0419001000624B984743
S214001AA0FB68042118006E4B98470300FB60FB6838
S214001AB0C2229203944663446D4A110018005A4BA2
S214001AC09847FB6804211800654B98470300FB60A5
S214001AD0FB68C222920394466344664A11001800CB
S214001AE0514B9847FB68042118005D4B984703004C
S214001AF0FB60FB68C22292039A188023DB0519005C
S214001B001000494B9847FB6804211800544B98472F
S214001B100300FB60FB68C22292039A1884239B058D
S214001B2019001000404B9847FB68042118004C4BE6
S214001B3098470300FB60FB68C22292039446634406
S214001B4000211800384B9847FB6804211800444BC6
S214001B5098470300FB60FB68C22292039A18FF2393
S214001B605B4219001000304B9847FB6804211800B0
S214001B703B4B98470300FB60FB689BB21D4A19006D
S214001B8010001B4B9847194B1800304B9847030022
S214001B90BB60184B18002D4B984703007B607A6893
S214001BA0BB6869E0DD100000551200003917000020
S214001BB09109000061160000D0000020650A0000B0
S214001BC0D4000020D8000020DC00002000100042D6
S214001BD0190C0000F90B0000A0860100F1160000A9
S214001BE05501000020203000B5010000F82030002C
S214001BF01D020000FC203000342030002C20300075
S214001C0030203000382030003C20300048203000A3
S214001C1040203000442030004C203000502030005F
S214001C20642030006C20300095020000070000267B
S214001C3004003000080030005420300090203000AF
S214001C4094203000D420300070203000550300006F
S214001C5040350100CC1C0000C106000000FFFFFF5D
S214001C60DD030000FF000002070000050100001F62
S214001C7010813F0710C103089A4284D17B68FB603D
S214001C809EE6C04670B500260C4D0D4C641BA41095
S214001C90A64209D1002613F0CBFA0A4D0A4C641B63
S214001CA0A410A64205D170BDB300EB589847013684
S214001CB0EEE7B300EB5898470136F2E73C520100D6
S214001CC03C5201003C52010040520100FFD8FFE0A8
S214001CD000104A46494600010101009000900000AD
S214001CE0FFE100584578696600004D4D002A000067
S214001CF00008000401310002000000110000003E50
S214001D005110000100000001010000005111000404
S214001D100000000100000000511200040000000155
S214001D20000000000000000041646F626520496DFD
S214001D3061676552656164790000FFDB004300025D
S214001D40010102010102020202020202020305036D
S214001D50030303030604040305070607070706072D
S214001D600708090B0908080A0807070A0D0A0A0BDC
S214001D700C0C0C0C07090E0F0D0C0E0B0C0C0CFFAC
S214001D80DB004301020202030303060303060C08FA
S214001D9007080C0C0C0C0C0C0C0C0C0C0C0C0C0C87
S214001DA00C0C0C0C0C0C0C0C0C0C0C0C0C0C0C0C6E
S214001DB00C0C0C0C0C0C0C0C0C0C0C0C0C0C0C0C5E
S214001DC00C0C0C0CFFC0001108011001E0030122EE
S214001DD000021101031101FFC4001F0000010501EC
S214001DE001010101010000000000000000010203E3
S214001DF00405060708090A0BFFC400B51000020117
S214001E000303020403050504040000017D01020328
S214001E100004110512213141061351610722711485
S214001E20328191A1082342B1C11552D1F024336208
S214001E307282090A161718191A25262728292A34FD
S214001E4035363738393A434445464748494A535465
S214001E5055565758595A636465666768696A737455
S214001E6075767778797A838485868788898A929347
S214001E709495969798999AA2A3A4A5A6A7A8A9AA66
S214001E80B2B3B4B5B6B7B8B9BAC2C3C4C5C6C7C884
S214001E90C9CAD2D3D4D5D6D7D8D9DAE1E2E3E4E5B5
S214001EA0E6E7E8E9EAF1F2F3F4F5F6F7F8F9FAFF0F
S214001EB0C4001F010003010101010101010101002D
S214001EC000000000000102030405060708090A0BCB
S214001ED0FFC400B511000201020404030407050450
S214001EE004000102770001020311040521310612E5
S214001EF041510761711322328108144291A1B1C188
S214001F0009233352F0156272D10A162434E125F102
S214001F101718191A262728292A35363738393A4302
S214001F204445464748494A535455565758595A63A4
S214001F306465666768696A737475767778797A8295
S214001F40838485868788898A9293949596979899AC
S214001F509AA2A3A4A5A6A7A8A9AAB2B3B4B5B6B7D1
S214001F60B8B9BAC2C3C4C5C6C7C8C9CAD2D3D4D5FD
S214001F70D6D7D8D9DAE2E3E4E5E6E7E8E9EAF2F329
S214001F80F4F5F6F7F8F9FAFFDA000C03010002118F
S214001F900311003F00FDFCA2BE37FF008296FF0043
S214001FA0C1753E04FF00C12A7E22787BC25F132ED5
S214001FB0BC5175E24F1269ADABC163A1E9A2EDED6C
S214001FC0AD7CD68A39652EE8AA2492399576963F56
S214001FD0B97C81F2EEF80FC71FF07BAFC39D1FC41C
S214001FE01241A0FC0FF166B5A6AA8297571AF436DE
S214001FF07239EE0C7E4BE31FEF5007EE2515FCFE04
S214002000DF7FC1EFF236A9335B7C078D6CBCDCC486
S214002010B2EBE5A511E7A3308C02D8CF2001ED572F
S214002020BF6BAFF82D17C51FF82E2FFC131FE2A6A7
S21400203091FB3A7857C41E07F14782EFED64F186AC
S2140020408167AAA5E6ABAF7866782EC5C3DB1444D5
S21400205090AA4B1C292C680B3A4BB79DFB1803F42F
S21400206063F6AEFF0083893F647FD916FEEB4DD63C
S2140020703E2A69FE28D76D52390E99E1585B58778B
S2140020805724713C7FE8DB97077219830EE3915F54
S21400209037DCFF00C1E73FB27DBDC491AF867E3618
S2140020A0CCA8C54489A0D86D700F519BE0707DC048
S2140020B035F893FF000479F11FEC77F0CFE274FA5D
S2140020C0F7ED5963E35F115EDB6A50C1A46876BA28
S2140020D078974785432B3DD5F1F315E5C38D8612DA
S2140020E0A536190B072542FD6DFF00058AFD957F75
S2140020F0E09CFE3CFD9A35CF891FB387C54F0EF88E
S2140021005FC7BA5CF24F1E8164F78F65E2266D8466
S214002110DB25BCB1FF00A3B2AA3943184425886C5E
S214002120E54800FDCDFD85FF00E0B21FB3AFFC140F
S2140021305B526D2BE17FC44B0D43C4D1DBA5CCDADB
S21400214005FC32586A48AC1D8848E5004C55636269
S214002150FE43481060B1008CFD23E26D5E6D03C344
S2140021609A85FDBE9D7DABCF636D25C476167E5FDA
S214002170DA6F5914B08A2F31D23DEE46D5DEEAB971
S214002180232CA3247F233FF06E57FC13D7E297ED52
S21400219063FF000506F87FE36F0BD8EB9A4F81FECE
S2140021A01D6BD06A5AEF89A06FB3C56DE50328B6DC
S2140021B08E423F79249B42145CE164CB6D0CB9FEE1
S2140021C0A3BFE0A2BF1BD7F66EFD837E3078E3FB8D
S2140021D049B47B8F0EF84752B9B3BC5386B7BB36AB
S2140021E0EEB6E57FDAF39A303DC8A00F832CFF00E9
S2140021F0E0F11FD94FFE12D9B47D4B43F8C5A24D6E
S2140022006D33DBCF35E68564D0C0EADB581315E3C3
S21400221093820F2A0F4AFB57E107FC152BE08FC766
S2140022203FD8F3C45F1E7C39E2E92E3E18F84A2BED
S21400223089357D567D2EEEDBEC8D04492CC8124880
S214002240D5A565122AE620EA5F2A189040FE236488
S214002250926D52F999BCCB8B8B89324F2CF23B1F77
S214002260CC924D7DB9F1A7FE0AF3E347FF008258F2
S214002270687FB1D9F86DA6781FC39E1D9ADE7B8B4A
S214002280BF32F5352BC956792EA769966908FDF534
S214002290C4A642BB42AE70A000A0007F4F1FB22F64
S2140022A0FC1687F664FDBB3E2AA781FE16FC55D2B7
S2140022B0FC49E2E92C65D423D31F4FBDB19A68A32D
S2140022C0DBE66C3710C6B23A86DC51199B6ABB63F4
S2140022D06A311F5157F183FF00043FFF008291E9E6
S2140022E05FF04B0FDBAEC7E276BDE1F9BC47A1CD90
S2140022F0A35E68B7D6F6E23173124FB184B133A944
S214002300DACAF12648C12A5D738620FF00405F08BE
S214002310BFE0EE3FD907E2878D34DD16FB54F1C7E8
S21400232083D6FD5CCBA96B5A204D3EC8AC4CF891C9
S214002330E29247F98AEC522339665CE0124007E9DC
S214002340E5158769F133C3B7BF0EEDFC5D1EB9A571
S2140023507FC22D77611EA916ACF728966F6AE8240F
S21400236049FCD6217CB28C183138C1CD7E287C65DC
S214002370FF0083D0FC277DF1CBC27A0FC31F87EC0A
S214002380BE0EBAD7ACA0D73C43E2C95E168F4E76D7
S21400239045B878EDE024C7246198866690109F7053
S2140023A0E71401FB97457C5F65FF00070D7EC6BA04
S2140023B09C812D7E3968174E582ED874DD41CE4F3D
S2140023C0D2DEBEBFF07F8B2C7C79E12D2F5CD2E570
S2140023D0927D335AB48AFAD24785E169219503A3E0
S2140023E01470AE84AB03B58061D08078A00D1A2837
S2140023F0AC6F88BE36B5F869F0FB5EF11DF2C925F4
S2140024009F87F4EB8D4AE163FBCD1C31B48C07BE8D
S21400241014D006CE68CE6BF85BF8F9FB5C78AFE3B9
S21400242057ED19E34F1F5C6B7AC5D4FE2AD5EF2F04
S214002430D5751BA6BA68E39A46288771209442AAE7
S2140024400E38DA318AFEA6FF00E0DB6FF827BEB54D
S214002450FB0CFEC03A7EA9E2ED4B5AB9F1AFC55669
S2140024608BC4BAAD8DDDCB3C1A4A3C605BDBC71E25
S2140024704AAB088AB3B752CC4670AA0007E84D713B
S2140024801FB4AFECFF00E1FF00DAB3F67DF1A7C39F
S2140024905F1545249E1DF1D68D75A2DF188279D072
S2140024A0C73C6C9E6C45D595658C90E8C54ED74567
S2140024B06C715DBD1401FC99FED33FF0439FDAC3F7
S2140024C0FE094BE2BF1D69FA1F8057E347C3DF884A
S2140024D0FA25DF8427D4740D265D516FECE59C5CED
S2140024E05B3CB691E6EAD2EA09ECACAF15937449C8
S2140024F02C3121966469237FA4BC17FF00057EF863
S21400250039E38FD9D7F6ACF807F1B341BCF86DAE16
S2140025107C71D121F12C93EB9E1092C2CEC3C72FB3
S214002520E1FB4B6D464B8B7B732CA88DAC69D05F63
S214002530432AC019A4B894C8A85016FD73FF008299
S214002540C7FF00C1667C03FF000482F833A6EADA00
S214002550ED9C9E27F1B78A2468BC3BE19B69BCA929
S2140025602F0215F3AE259304450441C73825D995A7
S2140025705472CC9F96569F0BFE387FC163BE39F8C7
S2140025805341FDAAFC6BAA7C39F08F883C51A641CA
S21400259079F0FBC3FA38D1E3B5D3F57D12F759D2FB
S2140025A02EE7B9917332BDD697269E1260D324E4E7
S2140025B0A890390A4039BFDB93F6BEF865FF0005E0
S2140025C02FFD82BF67B9B49F8B163ACFC40F09FCA4
S2140025D02CD63C27F113479164B4D7B51D587868BC
S2140025E06B764CAF2460CF18D6FC35002612C19E01
S2140025F0EE24CA99C03F5E1F0EE87FB47FFC11939D
S214002600FE0A0DA6FF006EDE6BFE1AD5355D6BE288
S2140026109F8762963512D8DAEADE1DD27C65670897
S21400262042BC2ADE5E48391BB218F07A79DFC31F37
S214002630D863E1AFEC4DFB267ED3D716BF0BBC2F7D
S214002640378BBF659F8EFA778AE09AC5BED1AE4DAE
S214002650E0EB4D4746F1040B35C484BBFF00C4A62F
S2140026604BA8C2B1DA4C27396DCC7DB7FE08BDF059
S214002670CED2E2E3C7FF000B3C69A5DB58EA9E20FA
S214002680F83FA3782B5EB6B594B5BEB33F86757F8C
S21400269013F83EFAE509FE236B63A52B10380F16D8
S2140026A07B6403E34F8FDA758FC7DF8C977E22F04B
S2140026B0EDB47696FE3AB9F19DC4C88E625173E3C6
S2140026C02F831A4DEACA4B0310F32E6CAE987EF891
S2140026D09C87015B01858D4EDBECFF0006BE333721
S2140026E096DF66F16FEC17E0FD7AE033925E786D68
S2140026F05208D9483955014E54FDE232783CDEFD89
S2140027009C354847FC327F893498DA7B0D5AFF00A7
S214002710E075AEB50C90FEEE1BA5B3F1B784AE58CF
S21400272080787FF43B742CC73944C8180958761A49
S214002730FC1AD7ECD1AFDC472492477FFF0004F3A6
S214002740D3E152E3E6DF65A8CD6B203CF003FCAB9B
S214002750EAABDBA5007EFF00FC18D13FE119F83D8F
S214002760E13D37CEFB47F67E8D676DE6F97E5F9BD3
S214002770B2045DDB7276E719C64E3D4D74B58BF03C
S214002780E496F87BA096FBDFD9D6F9CFFD735ADA2C
S214002790A002BF2E7FE0B9BF15FF00B2BF6A0D02D0
S2140027A04B58F534D4BE0C7C1CF1978DB4D9ED771C
S2140027B0029AD6AE2DFC3DA32AF6321B9B89F6F76D
S2140027C053861F779FD46AFCB5FDA57C3DA87ED1B5
S2140027D0BFF0528F1B69723497DA46B1F10BC07F97
S2140027E00E596DC1DD6FA5E8F6971E2BBC914E7B8A
S2140027F06A0F6B1391F74360E738A00F9D7F6E5FFB
S214002800DA0ECFFE09FDFF00052BFD84FE0EE87EE6
S21400281011B7F1A3FC0FF87723E8BA4DC78960D14A
S21400282004BABDF5B35885BAB892DE6E90DA16448F
S21400283050ACF2CF1FCDC6D6D6F85FFB7B7C72F8C5
S21400284079F173F69BF1C68FF077C0B67F153E38E8
S214002850CF0FD8F575F88B15D43E1182C74C4B0DAB
S2140028603627B5FB1C82E3ECF379B348731ACAD358
S214002870152A98AF977FE0BAFF000B66F8817FF1C4
S2140028803FF6D0D2EDF50D37C49E0BFDA053C05ACF
S21400289024E1CC9677BA6E93A7C36C970A07036EAB
S2140028A0A3A7DC7CFF00C4662BFC2B5F4F7837E1C8
S2140028B0B59FC49F83573F183C2FAB5D4D35C3DC97
S2140028C0EAF6D6B1C4BE4DC5B677ED6182C494DCD7
S2140028D04E08E08206579F9BCFB32C4E0DC5D1B550
S2140028E09A7BAEDFF0E7EAFE1B70964F9E42B2CCB4
S2140028F06528CA0E36E5695D4AF6E8F6717AF9A3E8
S214002900C1FF00E09A5AD7C5EFF824AFC07F8C5AB3
S21400291067837E1BF80758F8A1F11F4E8EC74CF14F
S214002920243F10ECACD3C3C96D652456528B1BCB29
S2140029305D933ADCCB3DCCBBA4549D9829550B93B4
S214002940BDFB15FED37F11BFE0987FB1CFC7887C53
S21400295023FB3578EE3F897F10AC6DF4AF076B3EF6
S21400296015D4F4FF0011C1A45B59D8C761A5FDAD0D
S2140029702CDA48DE780C9797F34E96C82EAE6E6427
S2140029800D1C6AE1A3F54F1368517C4AF0DD8EB347
S214002990A3C8D0EA30C627B2954ED63DCC44F62121
S2140029A0B383D981EC5B2DF071D2FE23E9BF6CB8FE
S2140029B0B18AD758B36F26E5E106DE7864FEF2B238
S2140029C0E194360F19E0AB0FE1CD7CFD3E2FC4AF8E
S2140029D08E09FDEBF53F51C67811954DB587AF389A
S2140029E069A5ED25F3D17E68EE7FE0DB0F8E5FB341
S2140029F07783AE7C5B63078F343D17E285DCF63E5B
S214002A0008D0BC31E20DFA4EA9A5E89604DADADB66
S214002A10A4171FBA4BDD46FF00EDBA9DD5BD9C92AC
S214002A200371A8E581719AFD91AFC11F8E9FB2F622
S214002A3091F1D34F8E1F1369DA4F8D12D4016C7546
S214002A40C8CFF685A012070B06A1115BA85770E445
S214002A50238DDDF8AE53E0A7ED8BFB497FC127F54C
S214002A607B1FF842758D7FE2C7C25D2E346D43E151
S214002A70F78B2EBED5A8D8D9C5E5861A55D819E243
S214002A80332958D47CA426E4989C57D0E0389B0B76
S214002A90886A13F765E7B7DFFE67E5BC4DE10E759C
S214002AA095C655A8255A9AD6F1F892F38EEEDE57BB
S214002AB0EFA1FD0CD15F337FC1333FE0AB5F0B7FEF
S214002AC0E0A8DF076D7C41E09D4934FF00135ADB28
S214002AD006F10784EF250353F0FCE0EC911D703CF3
S214002AE0C8C3FDD9546D656424231283E99AFA336A
S214002AF0F290A28AF87FFE0AB9FB75EA9E08D6AC69
S214002B00BE05FC3BD6ECFC3DE32F1569536ADE2C74
S214002B10F17DC106CFE19F86D32B71A9CC73C5C3C7
S214002B208DC96E9D59F9EC0D007CDFFF000560FD38
S214002B30B3FC3FFB72EBBE2CF87763E23D72D7F630
S214002B4072F83B7890FC51BFF0FC8EB7DF1235C7A9
S214002B503B6CBC19A598FE69A49A4C09B674DCB9FE
S214002B602A1779E62FFC5DAC7EC07E0CB2D5B5A1E7
S214002B70E0BF0C7ED45E3CF0D7DA124B9B78E7F0D1
S214002B80DFECCBE048BE458E081729FBA056358AF9
S214002B90319BEBD20132AA00EFF833E0EF0BFEC90F
S214002BA0BF0D3C17F112CBC13CC0B7367FB3FF0058
S214002BB0C38D6E7FB3BA2ED2D7BE31D75DB88A49E1
S214002BC0973712CCFCDBDB98E30448E715FE1FF8CA
S214002BD07BC2FE0FD16DFE3D7C498F5DF8AF7BE377
S214002BE02D7A1BDF0A692F6FE56B3F1DBC591A94BF
S214002BF0B6BD5B671FE8DA3590F96C2061E5DBC28D
S214002C00AD7520323A000197E14F02D9FECE9E07FD
S214002C10F017C42F137807C45E2DF15EB9AECD75DC
S214002C20FB3FFC18D6E6FB4F893C6DE2399419FC55
S214002C3073E2B95F99B55743E7666220D2ADB6AA8C
S214002C4094970D17596BA56B5FB0E6BBE3883FE121
S214002C5060787FC61FB6978E7464D6BE31FC66D683
S214002C60A2175E1DF815E1E93F7890C11B00070327
S214002C70165A72847BC951279963B78E18976BC70B
S214002C80BF123C51FB2D78C3C59E26D7BC49E13DFB
S214002C9057F6C0F18680B79E35F19DF279FE11FD9C
S214002CA09D3C285B7C76F1236738CFEE2D47EFAF4F
S214002CB0EE48965CA6D07CC6D3C23E10F843E01F12
S214002CC006DE78EBC2FE2FF14D8F8D3536D5BE1D54
S214002CD07C18BF97CEF197C63D7A760CDE27F14377
S214002CE03647992B29758A6FDCDA42BC8CA958C006
S214002CF038FB9F13781FC11FB38E8BE2EF15784FFA
S214002D00C6D73FB3DEA9AB9BDF877F09EF8B5D7825
S214002D10EBF6AEF16B48B70DE20F1190AF2DC591F3
S214002D20B8F2E6F2E4578DB6C2C6331ADADB4FEDD8
S214002D30DE01BFBCFD907E29683F17FF006A38DBC6
S214002D40E387EDCDF1562907C31F83DA0BC735B7E6
S214002D50802DA5CF9765A7C6C5E1B151E562EB53B7
S214002D60909DA904E15E6F2EE65B8F41B59B52FDF8
S214002D709ABE2ECBAC6ADA5E8BF1EBF6F8F8856776
S214002D8015B69FA3D986FF00846FE16E9F264C166A
S214002D9081FF00E5C34AB652F249271737AEACDCCE
S214002DA099136795FC38F04FDB8FC54F1CF873E21C
S214002DB0B5BE81A5E976B3C1F197F6A5D4EDD1B538
S214002DC02F12DE8658EE74AF0B86CC769676A9FB6D
S214002DD09496156559238228564915E4600ABE095B
S214002DE0F01FC44F88BFB7E6B379E0F9AC7E2E7EFD
S214002DF0D792DA49A178CBE30DDDAB4FF0EFF6754D
S214002E008A55266D2340B490EDBABDB68653184257
S214002E104C8D2CE5AE1945C5EC6B73E03E8E3E3509
S214002E205A7C52F807FB034D75E1DB393505B3F8DC
S214002E30B9FB4FEBB3BEA5A9EBFA81DCD702C2E81B
S214002E401126A1A8BB5C4CFF00680F143009277838
S214002E507CB33DB4CDDBFC0FFD9A35AFF828F7C345
S214002E609F04F833E13A6ADF02BF60FF000E249643
S214002E70FF0065B4696C7C4DF182320F9D2BCB9FB1
S214002E80361D3E791E406566335D6E9E5620BC2E0E
S214002E909FA65F0ABE12785FE067812C3C2FE0DFBA
S214002EA00FE8FE17F0E6969E5D9E9BA5DAA5ADADF3
S214002EB0B2FA2A200050079DFEC3FF00B047C35F4A
S214002EC0F827C7C1FB7F08FC3BD0E3B569115F5903
S214002ED0D72EC2CDAD78A2EB73BBDE6A17580F7142
S214002EE0333CB2364E1503948D5102A0F66A28A0E4
S214002EF0028A2BC5FF006C6FDBEFE1AFEC35E18B90
S214002F005BCF1B6AB7536AFAB318B48F0E68F6AD78
S214002F10A8EBBAE4811DF65B5A47F3BFCB1C87715A
S214002F20C20DB82C0900807B34F3A5AC2F248EB1DB
S214002F30C71A96676385503A927D2BF337FE0A03CD
S214002F40FF000704E8FE0BF0CEBDA6FC00B8F09626
S214002F50B9FD912B586ABF14FC4F2CF1F803C377C8
S214002F608B976B34960479B54BE68C02B6F66926D9
S214002F70D13C5312F124A17E6EF8E5FB427C7DFF26
S214002F800082CFF8EEF7C0BA4684D71E1985FCAB90
S214002F90BF00687ADC96FE1CB00211324BE22F109E
S214002FA05AB06B898349162C2C4E0136D21906244A
S214002FB052780AD7E1A7ECABE3548FE1ED8E81FBA4
S214002FC0557C7EF08C10D94BE2DD445BE85F0AFE50
S214002FD014DB37971208B611696CB1C9344DE55B3E
S214002FE0EE9D96F662243829401C67807F63DF8852
S214002FF01F12FEDDFB437C7EF8A9E2FF00817E0FF8
S2140030008639A5B9F8ADE3FB916BF14AFC2F993CE4
S214003010B61A0D802F6DE1CB290B5CB456F6A92DA0
S214003020F6639A25696DEE046BD16ABFB53E9FF0D4
S2140030306FF67BFF00845FF663F0AD8FEC7DFB3EA2
S214003040F8B679AD6C7C777DA64DAA7C4AF8B92493
S214003050881A01E1ED3598DDDC3BC970B0A5DDCC02
S214003060AC563BFB578E480C7E5D796FC54F8DBACC
S2140030709F8FFC69A47C55F14F8B25F8B1E3898AB4
S214003080B787FC79E2ED11DBC33A4DDA40648E1F58
S21400309007F85942C9A85DB6FD3DD2E6751034D092
S2140030A04A728CE73EC9E09FD83B59F0BCDAC7C7E6
S2140030B04F8BDF12358FD9DBC1773306B9F1DF8A44
S2140030C0B524BAF89DE2982369DEDD619403168A7A
S2140030D0820B7B4516B6119924B60639093106A02F
S2140030E00F06F096AD75A37C54D53C13F0BFC3BF56
S2140030F0147C05E2CF184735CDF5AF84AFA3D67E56
S2140031003EF8F9AE5A2782FF00C41E22915E1F0CBD
S21400311058CD79069CD756E1BCC86596512DBB2480
S214003120BE657B9689FF0004EBF84FFB097C2AD32B
S214003130E6FDA9BC45A5F83BC33E24BB8EE7C3DF2E
S214003140B367C2F33CFF00F0965C16924B6B2D52B1
S21400315040CDA9788EE3ED496CD09BA985BDB5CE50
S214003160E891C41288C55F1C7FC1462CFF0064CF5F
S21400317001DAFC33FD95FE1F5BFC01F0BEB5E649A7
S2140031806DE20D5BC3D26BFF00103C5CE9E5ABDC87
S214003190D8E8A1BCE908FB2BA4B36A1229781A392F
S2140031A0A2C98F15E73A1FC07D43E1C78D8AFC642C
S2140031B0D73C45F0FF00C4FE3E060BDD0AC2F53CD8
S2140031C067F1C3C71034B6C934377A80C43A4DB2F3
S2140031D018EDE43E418126B39E42C4BC6CD401FA8D
S2140031E0B3FF00055AFF00822C7C2FFF0082B8CF69
S2140031F0F0EEE3C7B79AD6917BF0F7509268AE74BC
S214003200B6549351B29BCB371652923EE398A32105
S214003210C7CD190FB71BDB3E77F0E3FE0DA1FD8B84
S2140032203E0268FAC5E5D7C38B7D52C9AD646B9B79
S2140032309F12EA925E47631843BE55690811ED5C1B
S214003240B6EED8CF6AFD06AFCC9FF83A67E1E7ED59
S21400325015F187F60983C2FF0003BC3F7DAC786A90
S214003260EAE25BCF1EB69777B75292C62312C36BBD
S2140032701C03E79A191E59259767DD4B41BB2ACCDC
S2140032802803F0DFFE0BCBFB537ECE7F13FE355BB1
S2140032907807F65FF86BE09F0AF807C2B3192FFCB1
S2140032A049A3D87933789EF40641B1BA8B589598DD
S2140032B02742ECECC780807E947FC1AE9FF0419F92
S2140032C0177C0CD4F4DFDA4FE295E7883C25ABDFB9
S2140032D0DA7FC52BE1AB6B87B499ED65C16B9BF5C7
S2140032E01C9591784B76FE162EDCEC0287FC101FA0
S2140032F0FE0D77BEF869E30D27E32FED31A25A35B0
S214003300FE9EB6FA8F867C153912FD9E72BE609FB1
S214003310504FBBBA3DC9B603C8915B78F942B7EFC8
S2140033202D007E22FF00C1C75FB607EC63F073C7AF
S214003330C7E18FC48FD9FEF3C69F11ADEC239E2B39
S214003340CD2E18F446B1B59732C5245769CBA3489D
S214003350195828072AC2BF2C3E0A7ED4FF0002FC5A
S21400336013E289359F06FEC4ABE3882589A1583C45
S21400337041AB6A3ADDA8FF006820CAEE1EA3A57E10
S2140033808BFF00C1E9FF00B1A4DAEBFC22F8C5A070
S214003390E953DE6A123CFE14D57EC96AD2CB2AED0A
S2140033A03716CCFB7270B89D471FC5EE2BE5FF00A5
S2140033B0F826EFFC1C15E38FF826EFEC6FE1BF86CE
S2140033C0763FB39DAF8BEFB41B8BB77D6750866B94
S2140033D0579229663222652124EDDC4727B0A00FDC
S2140033E0A23E11FF00C1D69E37FD9DFC0D0D8DD768
S2140033F0EC8ABE11F0868F1A2F97A4DA5D58DB5B35
S21400340022AAC6092E814701572DCF0066BA6F8DB6
S2140034103FF054FD7BFE0E66FD8FBE207C03F82732
S214003420A3DC7C37F891A78B2F104FA56ADA98316A
S21400343078BF4A8E564BAB68E441B6331C8F6B2977
S21400344012643E001822BC17F6B8FF0083A17E2B3C
S2140034507ED77FB3378E3E18DDFECCBA5E93078EDE
S214003460B489F496BD864BB9E4B5F317FD622340E4
S2140034700332FDE0323A751D6BAAFF00833B3F60C6
S2140034808F889E1FFDAA7C45F1BB5CF0CEBDA2F8DE
S21400349036D742BCF0E59DE5C05B74BBBB924B776C
S2140034A07468DF123A855C8651B430E48E0100CD34
S2140034B0FF008209FF00C1BCDF193E177EDF83E2F2
S2140034C017C6FF00866DA6F863E14C77579A6D8E97
S2140034D0A4F0BC5E23D542BC76BE529DC1A156DD8B
S2140034E028938DAE909C104D729FF05AAF027EDEF0
S2140034F01F04BF64EF196B1FB400F8523E1DFC4654
S214003500D7AD34C963D2E2B3B8BEB49BCE37B045AC
S2140035106EEB1892351F64C12A795041E09AFB0F72
S214003520FE0B22FF00F053DB4FDAEB58D3FE0ADF28
S2140035306B175F0C2356BCD06F7C29A7C30C86097B
S214003540594FD9EEB76F2D342C1901E3728DD8F987
S214003550B8FCD9FDAE3E00FF00C14E7F6E4F076936
S214003560DE1AF8AFE01F8E5E33D0F46BC17F6B6758
S21400357075A19F252E55248C4DF220CB6C91D73EFD
S2140035808C6803E67FF824E788FC5FE19FDB83C353
S214003590337817E13693F1BBC4D359EA105BF83F92
S2140035A0518CC906A68F6730949008398E3DF27507
S2140035B0FE0AFD40F835FB4243A5FC7CD1F45D7B5A
S2140035C0FE0963A1AFC4FF00B61BED39346D29D0E8
S2140035D009ADC19F7879B280A88F772D83B71CF08C
S2140035E02BE23FF827FF0089BF687FF821E7ED3F11
S2140035F075F132FBF67ED7AFF586D1A7D163B7D784
S214003600B499E35B3134B0BBCB1B2A31593642D177
S214003610E47F0CAE3A1C57E917C27FF83AFBF691E6
S214003620F8DBE3AB3F0DF867F6454D5F59BE60909B
S2140036305B417B7DBD8B32A29E60000DEE809ED9E5
S214003640A00F5CFDBEFF00E0DDCF087C4BF097C40A
S214003650AF8E7E31FDA03E3868FA243A0DD789AF8A
S21400366034191E110E93616D6665163B1B85486105
S214003670884414838080738AFE646DADE4BCB88E83
S2140036801891E4965608888BB9989E00007249F403
S214003690AFEEFBF69DF0A5D78F3F667F885A1DA735
S2140036A08674BF1A5EEB5E18D4AC61F0F6A1726D3C
S2140036B06CB5E925B59116CA697AC714C5846CFF3E
S2140036C000C2AE4F6AFE7A7C3127ED65FB33EA9A7C
S2140036D0841F07BFE09CBE1FF03B349B4DC5CF85C3
S2140036E066F10BB488C3F78B2CFD46572A571C622D
S2140036F0803CFF00C41FB7B7FC13BFF64DF8A7AE5B
S21400370058F84FF64BF18F8CA6B388D846FE2DD4CA
S2140037100C51AB0915999ED261BE39405C649C8001
S214003720C47735FD087C33FF008288F82BE25FFC07
S2140037301382C7F694D361BA9FC1F3784E4F13CD68
S214003740676CCB25C5B7931B7DA6D3276AB490CBF1
S2140037501CB092300B4671918AFE5F3F6BDFF827F4
S21400376037EDC9FB757ED31E22F8A3E35FD9D7C712
S21400377056FE28F194F049A81D37C2F259D9878E13
S21400378008ADC388C64292B12B31C9DCC598F26B2E
S214003790FA2FFD907FE08D9F0F3E1EFF00C12E3C4E
S2140037A003FB3E7C46B36F1A58E91632DC6A727D1C
S2140037B0A2EAD127BDBAF31E76540EA42A994AAAC5
S2140037C038C008095DD9A00F36F03FFC1D23FB2C3E
S2140037D0EB1FB27E97F143C41E20D4BC3775A85F9A
S2140037E04BA79F0B9B7FB5EB09244C81D9634C06F6
S2140037F08C2C91B6FC81C9EB835DCFED97FF00055D
S2140038001AF047C6FF00F8231FC64F8A1F0FF5BBE6
S2140038107BC1FF000AFA5BC7B313A7DB34C37B6E1A
S2140038205228E7504F96E779183CF06BF39FFE0955
S214003830C1FF0006B9CDAC7EDDDF192F3E377835E7
S2140038406C7E0B7867C5130F0869CD37CDAF2A5C41
S214003850ADC5B9560777D905BBA4721FE325D010AE
S2140038605188FA5354FF00835D74CF057EC73FB47A
S21400387027C37F037C4A5B3D43E375F69DA95BB493
S214003880BA41B1B1D1DACEE9EE12D42C72BB35B161
S2140038900E5029059401C9A00FE72FF618F87DE011
S2140038A04F1F7ED0FA549F133C5DA4F83FC0BE1C49
S2140038B01FDBBAC4B7B03DC3EAB05B3A48F616F1B0
S2140038C027325C4EB98D172064924E057F4C7FF0F0
S2140038D04F3FF83A27F679FDB2BE37DDFC3692CF79
S2140038E050F85BE4ECB7F0D5DEBB7112596B48A517
S2140038F09760618103051190AE790C791B4E7C9F11
S214003900FE09F7FF0006797C29F805ADE97E24F864
S214003910CDE249BE296B36B187934582136BA2A4CC
S214003920E19B9273E6CC9B4AFCAC170C33CD7957DF
S214003930FC1687FE0D32BCF893F1162F1F7ECAF6D2
S2140039403A2E9BFDACE23D5FC197374B676B6CE14F
S21400395040FB4DACB21DA15B0C5E363C31057209D6
S2140039600A01F6EFFC1C43FF00057CD33FE098BF3E
S214003970B235E68FA2DD349F15FE25595D699E1C83
S21400398086DAEBC9B8D26368CC726A64AFCCBE493B
S21400399071E59EF2EDEA15857C99FF0006C6FED518
S2140039A05FB677ED29E353AA78A2EF52F197ECF3CE
S2140039B034938D4F5EF17C8BFDA835292D7CC66D2A
S2140039C03E40034D0ADCC214C67E545BC6624B8E74
S2140039D0327FE09FBFF06B478E3E307C4BD27E241A
S2140039E0FEDAFE2EBAF175F68505A58D8785935508
S2140039F037E65B7B43B218AEAE8120C3B113E48CCE
S214003A0092C2493710C493FB596D0F847F67BF87F6
S214003A1016F6D18D0BC1FE15D0E0F2E18C797676E4
S214003A207691804E00E14773EA4E4F5A00FCD3FF72
S214003A300083903FE08A5E24FDBDB4EF0FFC70F873
S214003A404B797727C64F85762915AE8AF26E835E48
S214003A50B282792E963855BE54BA49249197B4A0AE
S214003A60EC6E4211F0EC9FF05BD8FE38FC62B15F62
S214003A708ADA0EB7F0F7F680D17C1DFD97AE69376F
S214003A800A6DF49F10788FC33AD58F88FC2C0C6F84
S214003A908F23ED53AEA968F8C7FC8446D608508F2E
S214003AA0D48F899FF07157ECDBE1AF104BA1F83350
S214003AB05AF107C5CD79913EC96DE0AD1E7D56DE43
S214003AC0F267FBB00B98D4C4B21F46618AF85FFE5B
S214003AD00B09A4FC41FF00829D7ECD5E3AF1649FF7
S214003AE0B096A3E12FF8423C3FA86AB71E2DF18E90
S214003AF0A50E8BE23D38C36C92BCD6F1C5B8DE2A63
S214003B00C76D18F2DB2595362EDCE6803EE8F1CF51
S214003B10C0AD17C7FF00F051AF8D1E091A7DBAF869
S214003B201FF6C6F80C92DE78834FBD576BBBAD2AE6
S214003B305974AB964032096D3F5FD376C80E08B70E
S214003B401E95F3DFFC1187C717B77F1E7C0BE20FAD
S214003B5011EB3F6CBED68EB7A44B04DF2CF1EB1EE8
S214003B6027F0E784FC61788063FD58D474DF13FC8B
S214003B70BFC2E922F0548AF907FE0993FF0004F653
S214003B80FDB4BF607FDA27E0FF008CBC7DE32D3FED
S214003B9047F867E03F1FE9FE139F4EB8D586B91C6D
S214003BA050EB8D69A6CB046911668A39946991C673
S214003BB049112BCD6B281B518D7DD3F037C07A6F02
S214003BC0C17FF828E78A2C64964BBD53C2DE375B6C
S214003BD0AD3ECED902A492CFAD6AF35D123FE79C0C
S214003BE01A67C53D18061DED1D7A201401E2D3F8AC
S214003BF05FC3FF0008E1F0FC363A5DBDBC3E19F835
S214003C00A57B6D343B447FD9A347F8DDA54F66A15D
S214003C10C9C2A9B2F134C413C05724D717F0DBE1E8
S214003C20C5D785BE1DEB7A6C91C37775A47ECD3F54
S214003C3013FC1C891424C8D1E8FE3D7B4894E7EFAA
S214003C40008C00CF39DE4F2D5EFDFF000503F849DE
S214003C506DE1AF879FB687890DA5AFF68E97AC6BE3
S214003C603AA6991BC7BD6DE33E13F0C6B6B332E461
S214003C707EEE5BFF000CBA9C7DE90FA6E35A5E1E43
S214003C80F855A9E9DF1D351D26081DEEAEBC03F16B
S214003C90D3CAF34795BBED1F116CEE22059B8F9A96
S214003CA0394104F0473D0D007E977C1C944DF08B07
S214003CB0C2AEADBD5B47B42181CEE0614E6BA4AC15
S214003CC0EF083C6FE13D2DA155585AD2228AABB57C
S214003CD042EC180076E3B568D0015F97BFB39F8EBD
S214003CE0B44F086BDE26F8F773FDA579A6F83FC338
S214003CF09E3DF8CD6E7955BEB2D5AFE458ADDFB176
S214003D00922B6D190027902500702BF457E3DF895E
S214003D10AFBC19F03FC5FAAE972243AAD8E8D773CE
S214003D2058330C8FB4885BC918EE4C9B401DC9C530
S214003D307C1FFB4FFC1D4D2BF63EB5F85B6114D681
S214003D406BF1A7C61E15F8716768BBA2FB1DBDB256
S214003D50C573AAC2E71F2C52DBD8EA208E8CD3602C
S214003D60FDEA00F973FE0A03FB3678ABC25FF06F1C
S214003D7077C33F80BA6BC7A7F8DB5EF0AEA5F167E6
S214003D80C642ED7ED1F69B7D395354D55049FC335F
S214003D909BCD46D083DD5241D2B8CFF82217C66FEE
S214003DA0F8589FF04EC8F4E9593ED1A2E8D322282D
S214003DB03C88E38E5B4C63D7302B1FFAEABEB5FA1D
S214003DC05FF18BFB2C78FBE3F78BB52D1E3D6B4527
S214003DD0F0B783ECBE17E85E1ABC648ECF5CBBBA45
S214003DE08CCBE45BCA78437B71A8D9E9EC3FBF6A09
S214003DF080F415F827FF00045EF88D0FC2CF899F68
S214003E00113E175BEB36F7D158EA32CF65796C2452
S214003E108E3D5AC66D9134B1AB80DE49786D5972CD
S214003E200645C03DEBE6F8A28B960FDAAFB2EFF28E
S214003E307A7EA8FD5BC1FC5C639DBC14DD9568D9E9
S214003E407F8A2D4D7DEA324BD4FD07D07C3B0F8711
S214003E50BED4B6CCCB6F7531B81063E481980DDB59
S214003E603D0311BB1D893585E29D3FFE10DF14C55D
S214003E70E2683E4B39716FAC28E9E531005C7FC0E3
S214003E800ED2DEC33DDABAE1C2D55D46FEC6359235
S214003E90DEEE6B555954C6F1CAEA032B0C1041EC02
S214003EA041C1CF635F98C5BB9FD95522947B168AC4
S214003EB094254F5538359FE24F0D5AF8A74D6B5B4A
S214003EC0A53B73B91D789216ECCA7B11FAD5E8208B
S214003ED05B5852245DAB128455CFDD00600E7E9495
S214003EE0EA92AD75A9F08FED2FE0FF00187EC4DFD3
S214003EF019ECFF00686F8473B685F117E1DCCB79A7
S214003F00AD436BFBBB5F11E9C3FD634B18E18797BD
S214003F109120EE9BBBA0AFE8B7F615FDAF7C3FFB4C
S214003F207AFEC91E05F8BBE1882E2D348F1B69C2A8
S214003F30ED6D6720CB65323B453C0C470C639A39E8
S214003F401370E1B664706BF0F3F6E1F1EF86ED7E88
S214003F501F5F5A5C5C7DA2FB56B3B9D0E0B78233D4
S214003F60349A8CD3C6552D6345CB48F92490A0854A
S214003F705DC4E0570FFB197C0CFDA6B48FD8B3C206
S214003F80DF097C51F152FF00E15FC3BD2D6EE56F86
S214003F900E786D3CBD62FD6EE68EE244BDB8CFEE97
S214003FA0CA9DEAAA855E32CC0839AFBEC87398D1DE
S214003FB0C1BFADCB48BB47BBF25DEDF85CFE63F11D
S214003FC033806A63F3DA7FD874F9A7522DD44ACACD
S214003FD03169E929745CC9FCDA6ECDB67ED9FF007A
S214003FE0C149BFE0A8DF0FFF00603F81FAB6A571A8
S214003FF0E25F0BDD78E279D747D13459F528D4B69D
S214004000A3303E51B90A4B43047FEB2472388D1B14
S214004010193815F91DA07EDD5F01346F10DE4DE303
S214004020BF147893E3069767791788FC6B7FA168BF
S214004030B3DDCDF173C4EB109A084B636C1A15917F
S214004040C470C4787930581119CDEF037FC13E3E55
S214004050177827583AABE8726BDAF499336B1AD4B0
S214004060ED7F7F724F79649376F3800648CE057AAB
S2140040709687F0EF43F0CC0B1E9FA55958C6B81B89
S214004080608C44A7F05C0FD28ADC654D3B52A6DFFD
S214004090ABB7F9865BE00E2651E6C762945F68C54B
S2140040A0CBF16E3F91E57E17FDB63C3FFB61FC67AA
S2140040B0BEF187C5FF000FFC48D7348D574D8AFBED
S2140040C056D134ED04C316AEA9249259F8562324CB
S2140040D083ECFA5DBEC8E4B86EB793CA4B7EED7645
S2140040E0D7696DFF00053A8FC0A9A87C60F13784B8
S2140040F0BC78FF00B4078A13FB0B44924F08497D37
S214004100E1FF0083FA332B911D8DBC6C7ED122ED2E
S21400411040C4006595D4B7EED0A9EC9B4AB571F3C0
S2140041205ADAB7FBD0AB7F31437D9ED405122DB64D
S2140041303A08E5F27FF4122B923C655AFAD356F50C
S21400414067B957C01C0723E4C5CF9BBB8C6DF77FB0
S214004150C13C3FC29FB66FC22F0FDAA788F52B89E6
S21400416035BBB87C5A13C01F0F3C5CF2D9EA1E3927
S214004170F133B146F1A78BA7914010C6CACF0C19F0
S21400418065B78D57037B291F657867424F81B73E19
S21400419026D7BC0FE36F09FC65FDABBC51631BF86B
S2140041A0C3E2C6B12C6FE1AF86D633EECC8A0314D9
S2140041B086DD02B8B7B38CEE97CA1BC801B778C6BF
S2140041C0BDE1AD27C5B1797A95BE9FAA232946FBE6
S2140041D05C515D3329EA3748ACC3F022BC3BC77F4D
S2140041E0F04E3F06EA76C5FC117DAB7C31BE175615
S2140041F0F780F87AE1974F9A586559564B8B2766A1
S21400420086E5B2A07EF3E503F84F4AF4B0DC6142DF
S2140042104ED5A0E3E7BAFF0033E4735F02734A317A
S21400422073C056855F27EEB7E9BAEFBB5EA7D6DA4E
S21400423057833C2FF007C0973AD78CBC41AE7853D3
S214004240F674B191F55D6358D4999FC73FB49788CB
S2140042502E31B9E44189FEC2EC6358ED930673240F
S2140042604B848D40AF69FD9FFF00611F1BFEDA3A4D
S2140042708E87E21FDA2BC2BE1FF06FC23F0BE2F33F
S214004280C07F0534E45367A6B3A9F2AEB582B85B27
S2140042908BA86361B611FBB8A6799B92108FCEFFF0
S2140042A000841FF050FF0014FEC2DFB5B69FF10B6E
S2140042B0F6CFF05DE7C62D3A2834ED1BC3BF136C6E
S2140042C00B5D5B784C42912295B02024533B0BABA0
S2140042D089A500CD24BE5EC0AA1457EF7FC2EF8A20
S2140042E0DE1AF8DBE04D37C51E11D734BF127877DB
S2140042F058812E6CB50D3EE167B7B98DD432B2B297
S2140043009C72AC0FE22BEA686229D682A949DD3E90
S214004310A8FC6730CB71580C44B0B8C8384E3BA7E1
S214004320FD6ABB35A3E86D69FA7DBE936105ADAC49
S21400433010DADADAC6B1430C4812389146155547FA
S214004340000000007000A9A8A2B63842ABEABAB5D1
S214004350AE83A5DCDF5F5CDBD9D959C4D3DC5C4F08
S214004360208E282350599DD8E02A800924F000AFDB
S21400437019FDB2FF006FBF01FEC55E1B075EB8B831
S214004380D6BC5DA8DACD3E85E12D2545C6B3E2074D
S2140043908CC6BB2188745DF3441A47C2207DCC408E
S2140043A004D7C07FB6369FF1EBF6E9F1D6B7A5780D
S2140043B0D3FB2FC1FF00097C32256D72DB51B99308
S2140043C04FF09E8B6F358A4CADA85D82AFACDC4457
S2140043D0C9E5BDB5B62D81B970D2900573CB15462B
S2140043E035A38694973C94A49756A2E2A4D2EC9C5C
S2140043F0A37F54572BB5FA1E8DFB717FC17296DDD5
S2140044002E7C31F018D95F5CCF7573A4FF00C273A1
S2140044107F6525E69A2EE3B7321834BB48FF007B4B
S214004420A9DCA924E140847D9E60CDC57CAD77FBE8
S2140044302EE9FE00BE5F1DFED35E28F18E83ABF82C
S214004440E594C1E14B6BBFED4F8A1E3B596DA38FC0
S214004450ECF712C1CD9DA2B027ECD6C111459EE661
S214004460624BD753E0FF00889E1DF81B1D9DD7C1E9
S2140044709F3AEB53D5A7834397E3778CB4AFB45FEB
S2140044806B32AC86CE5B6F0AE8F12A99BCD1677BAB
S214004490B7C8458774C18C8FB8E785F855F0B3C6A2
S2140044A03F1E3C69AD693E0BD07C6DAD78DB5DB3DD
S2140044B048BC4DABB6AB1C9E28B94BBD32EC93AC9A
S2140044C06B5F35BE8707DA1EE87D86CCB5C61F6EE5
S2140044D001AE8249FE367C6ED7BE21F8127F87F287
S2140044E068B07C27F86BA1DAEE3F08BC03A947A7A3
S2140044F0369F00FB3A2CFE26D71311D9AA7DAD377E
S2140045005B445A526CB81CD27C14FD91FC6DFB5D6A
S21400451078474EB8D274BF09F86FE18F86E7175612
S214004520FA8EAFA7FF00647C37F0C62E7520C34F07
S214004530D35CABEAF283F674FB65D9D9CC2EA381A3
S2140045405DB7883C37F073F648835087565D17E3AF
S214004550D78FFC286E3521E16D2A75D2FE1B7812A6
S214004560E9E28AE966D42E256D92C9E75A46DE6DE1
S214004570D3C93389DB6C6338AE27E3378E3E267E9D
S214004580D890AF8CBE21789B43B1F84FA5DCB369B9
S214004590D75AE594FA6783628A0B994AC7A5E8FF5B
S2140045A0002DE6B52B5B830F9932C712CD6F1B2803
S2140045B0606803A56FDA9FE12FEC79A6B7887E0DB9
S2140045C0C3FF000B5BC77791C5A4CFF1C3E226E912
S2140045D06D643E5E988B6FA45B81E65E4813C86888
S2140045E0EDAD5163F36D997765B9F20F10784BC74F
S2140045F03F14F53B5F8A9F1C7C697FE199B59B66FB
S214004600B9D2FC41E2BB2FED2F186A311B7BC9C41F
S2140046107E19F0E2064B18DE39269EDA6950CD196F
S214004620492266E2BAAD3FED9E1FF8976BE19F8583
S2140046309E1CF16EB9F1565B6160DE25D674A875D6
S2140046408F1C470855B479EC74CF96C7C3D024B6F0
S214004650FA7DEA3DC98DC057281F273A57FF00B399
S2140046609F86FE1C7C4E66F8C9E30F11F8A3E2E7AE
S214004670893CCD44FC2EF865772F887C5DAB4B8952
S2140046806FD20D4759037C48B7497E8A20582011BF
S214004690CCD19661401C9F803C75E22D57C7DAC787
S2140046A0827F67BF0878A3C35E2AD7AEC36B9AEE35
S2140046B09D347AFF00C47D4CF9AE1A6BBD525DD6B0
S2140046C09A4C416EE2B94405D9A09A6400118AD783
S2140046D083F66FF87BFB2C788A1F0EFC57F11CDEE6
S2140046E032F881AF3C170BF053E15CD36ABAAEB731
S2140046F076D26238B5BD598B4F3429A85B7921E54F
S214004700758E21702365D8457D9BF05FFE09E9F123
S2140047109BE34F822DFC2F76342FD937E05344F697
S214004720E3C0BE01D8DE25D5AD4F9D084BED440253
S21400473022F36D654DC232F24724430D5F607EC999
S214004740DFB087C2BFD89FC3274FF87BE13D3F4A03
S214004750BAB80CD7FABCC3ED1AB6AD2B88FCD9AEE6
S2140047606E9F3248F2B448EF938671BB00D007C9FB
S214004770A3FE0EA3FD88C4912B7C53D5A3F3B050A3
S214004780BF8435755604E33936D8C641E7A706BE5A
S214004790C2FD9B7F6D0F851FB607861B58F863F119
S2140047A00BC27E36B18FCB59CE93A94570F68F22B9
S2140047B0091639514EE8E4DA72518061CE40C57E62
S2140047C00A7C67FD9BBC21F16F5D8FE14F8F3E1E1B
S2140047D06A5A578C74E6996DF45FF844DEDF56B477
S2140047E00D717D0B5EDBE842E8DFFD8C4AD7D71102
S2140047F08F0BEABACE951C76AF70FA544CFB0FCBF3
S2140048003FB4DFFC13AF5BF821F0C5BE347C1AD58D
S214004810ECFC336FF0FF00CE94F89340D76E99848B
S214004820C19A592DE4D4A148D2D35286DEEAD236B4
S2140048308351B5D02769185B41677B3BEE600FEB71
S2140048407E8AFE6C7F653FF83B7BF699BAFD9575D0
S214004850EF0BB7C33D2FE2C7C55F0FB7F699F1BDA3
S214004860C5BB43A769DA499E312CFAA59DAA451A0D
S214004870AC664F245C2CD6F1013425C6E8D8CFEFC1
S2140048805A07FC1433F6A9FDAC347D7B5E97F6C45C
S214004890F835F04ED6DD15341D5741F037DABC0733
S2140048A0A9CCF6A248A2BFD535012DD68729915DA1
S2140048B01A3D52DADA47668CDB25D07C2807EE856F
S2140048C0E5943A85BB43710C73C4C41292206524E8
S2140048D01C8E0FA100FE1546E7C1DA45EDB3433640
S2140048E095A6CD0C9F791ED9195BEA08C57E41F8BE
S2140048F05FC19FB74EA1AE59F827C4DFB725DFC307
S2140049006F8B57C4C361A178B3E12E876BA4788EF2
S214004910558D599B49D5A033417A858B15882C77C0
S2140049208234324B6B082056B789BE317FC1593F5F
S214004930609D034FBCF127827E0DFED45E1CB056F0
S214004940D435ABBF0C79916B42DE361BEDE38C0B96
S21400495046699D73B3C8B2B8C11CA9E14807EB4DC0
S214004960BF8574BB4B98668B4DB08E6B724C5225D0
S214004970BA2B46482A769C64641238EC7157EBF2E0
S214004980E7F654FF0083ACFE07FC48F880BE02F84A
S214004990DDE19F1A7ECDDF112DE61677D63E29B4CF
S2140049A07974DB4BA699634B76B95459A16DAEAEBC
S2140049B0EF756D0451A87DCE0005BF4FB49D5AD744
S2140049C05FD2AD6FAC6EADEF6C6F6259EDEE2090BE
S2140049D04914F1B00CAE8CB90CA4104107041CD0DD
S2140049E0058A2B89F8EDFB4B7C3BFD97BC2B1EB94B
S2140049F0F123C75E12F01E917121820BBD7B568398
S214004A004F8EE6508CFE5466565F324DAAC4226521
S214004A108853806BE22F137FC1CF5FB365FEA3A6DA
S214004A20D97C2FD37E31FC7ABFD46F174F36BE00A9
S214004A30F02DE5C4D6F70D14D3244CB782DB73BC37
S214004A4056D70EAB1EF62B04AD8C231001FA278C1E
S214004A50D37C88FCF12796BE6052A1F6FCC01E717E
S214004A609F4E07E55F975AFF00FC1787F684F154C0
S214004A70F24DE00FD8A35CBED0EF3424F12695AA01
S214004A80F89BE24695A1FDBB4C925587FB423899B0
S214004A905D26B589A481A7922999208EE20925680A
S214004AA0A39E277C9B4FF82CD7ED79F17266B5F064
S214004AB0AFECDBF0DBC1FADDBDB477D7DA16BFE3C7
S214004AC099B54D6AC2D7C98279E66B1B5B54B89616
S214004AD06B68AE22927B0823935085648375A83753
S214004AE07682E003F5768AFC81F187FC161BF6E6F3
S214004AF0F84561A16B5E22F815F00350F0DF894897
S214004B00934CBFB1F8876F6D637D6AD140F0DF2D9F
S214004B10FCB39B65B4B869D638AE1D963F39E185BF
S214004B208896E2D527EE3C53FF0005ADFDAFBE1DCF
S214004B30F8D66F0D6B9FF04F9D73FB76CEC135494F
S214004B402D34EF89F657D3DEDAEE092CD691C368FA
S214004B50E6E962668D651017F21AE2D965319B8820
S214004B6077807EA3515F96FAA7FC1D31E05F8296A0
S214004B703A0FFC2F0FD9D7F69DF82F3EB93F90B7C6
S214004B803AE784163D353D59659A58A59428C921BB
S214004B90212D81C035F5B7EC95FF00057FFD99FF07
S214004BA0006E5D561D37E18FC63F08EBFAD5CCED9B
S214004BB06D6DA45CC92695AADE3AC6646F26CEF152
S214004BC022B899422B3168D194056E783401F49559
S214004BD0366992DE3679196345E4B31C015F9ABFE5
S214004BE0B62FFC1753C4BE2EFDAB65FD9B7F635FDF
S214004BF00269FF001ABE335A65B5CD72FE62BE1357
S214004C00F082C52AF9FF0069951D0CC510323912CD
S214004C10C6892CB122B4D366DEA9DAFF00C1143EE1
S214004C20317C70F0E2EB9FB4F7ED41F163E2AEB792
S214004C303595B4575E12F04EA03C25E19D8A59E7A3
S214004C40B69638101BE059BE498C76F21F2D4303EA
S214004C50F2AA807E8B78A7E2EF857C0FA61BCD6339
S214004C60C49A1E9768A7699AEAFA38901F4C938AE6
S214004C70C7F09FED3DF0E3C77A8C767A2F8F3C2302
S214004C80AADD48C5521B5D56095D8856620056FE71
S214004C90EA31FA29F4AF807E247FC1B49FB262FC69
S214004CA0315D73C07F0AED21D6B4F8BCFB7B89F575
S214004CB08D53534BFDB821A585E761BB728122ACAD
S214004CC04E7634CA9134A622967C03FF0006F37E05
S214004CD0C51FB517C2C9AFAE3E06DC7833C4F206B0
S214004CE0B0D5A3B4D7351B6B8D22F63C2CBE527DB7
S214004CF0AA5B665DDCA3A8963752082D401FA0BFAE
S214004D0017FE367867E05FC1BF1378FBC49A9476C7
S214004D107E15F0869773AC6A7791A99FC9B68236DE
S214004D209242AA80B3B6D538550598E0004902BF2E
S214004D300EBFE09C1F0D7E227FC1CF7F1F3C63F11C
S214004D4083F681D6354B1FD9CBC0DAF0B3F0F7C364
S214004D50FD2EF8C1A7DFDDA88A6FB34DB70F2AC5B1
S214004D600984CB2BE19DAE4F9463058264FED97F08
S214004D70F06D87C52F0AF82F59F867F03FF686F1D1
S214004D80EDAF855996383E1E78CFC4931D275D84B7
S214004D90BB489224B6BB600F2158123827B48F3216
S214004DA0DADEB799E55BACAFFA39FF0006F57EC5EB
S214004DB07F107FE09F7FB04CDF0BFE236A7E0FD410
S214004DC0356D1BC4979716F1E84F3B3D8C53470C47
S214004DD08F05D19638C9984E672ACA0A3C2D03AB70
S214004DE032B03401F59FC0AFD9BFC03FB31783219F
S214004DF0F0F7C3DF07F877C1DA3C314511B7D2AC1C
S214004E0052DFCE11208D1A5651BA570AA06F90B3B2
S214004E101EE49AECEE6DA3BDB79219A349A1994A78
S214004E203A3AEE57523041078208ED4FAFC85FF866
S214004E302C07EDA9F18BF6CAFF008296785FF60F75
S214004E40F807E2DBAF8525ADA1D7FE21F8FED9EE47
S214004E5022BED2ED561FB6F9103C5B5A38D6010B6F
S214004E60964914CF35C4303490462632CCA4A2B925
S214004E70A5B06E7A8FC70FDA13E17FC00FF82577DB
S214004E80893E177893E237837C27F153E1FE9D77BE
S214004E9063E11B2F10F88EDEDF54D5F56F0BCC8B3D
S214004EA0E1FD45D2628CCF72DA6E937A5482AC2ED4
S214004EB054067460CDE79F13BFE0AE1FB285DFEDEA
S214004EC0C36FE32D2BE20E946DB56B18ED6EAFA39A
S214004ED0D36FA33673DC5BBCF3DE97588ABC826F55
S214004EE00EF85A2DAD90AB11041DF86F74FD98FFA7
S214004EF000E095DFB34FEC6DA3C107817E12F87317
S214004F005DD62378679FC55E31B55D6F58BDB98D98
S214004F1071F690F3A9F264724B37922152C73E584D
S214004F20E2BE8D7F1D6B4FC7F694D1A2FDD48E34A2
S214004F304551E830BD2BE3B11C6D83A72E5A717224
S214004F40F3564BF13D6A793D692BCACBD4FCD6FFAC
S214004F500082977FC15D3E046ADE26F1D68FE0EDC3
S214004F604B50F8E1AE7C78F06E9BE10F0DF85BC11C
S214004F70223BCBA7BF683C456AFE7E777D9D9BFBA8
S214004F804ACD3698DA660CBB639555C2F6DE1DD65A
S214004F90FF006B6975DD73C7537ECF7F0D749D521E
S214004FA0E2CF5FB05F0CDD7C58B7798AEA8DA7CB7D
S214004FB03957580C48DF68B169002CA337126403D0
S214004FC0963F614FF0CBC3573F1063F16BF86BC34E
S214004FD03FF09642EF247AE268B691EA91BBC66249
S214004FE0765BA58C4CA5A366424382558A9C824577
S214004FF06E2288D42A80AAA3000EC2BCCC571D49B4
S214005000B5F56A7EBCDDFCADD3CFF03A2964BFF3BC
S214005010F65F77FC13E4FB1FF82F56BBFB235B59A8
S21400502069BFB517ECEBF117E106951C89670F8A87
S214005030B4665F14F860036CD24119BDB6037CEE0B
S2140050406329B2346DA79620062343E1FF00FC16C1
S2140050501FF68CFDA8534EF107C23FD90B5983E1CA
S214005060FEA914325B6B1F117C556DE16B8BA59608
S21400507025956786DCACAD3DB94752B2C4581CFBDB
S21400508057D3971670DE5ACD6F3DBDBDC5BDC63C25
S214005090D86785658A6C1C8DC8C0AB60804641C1E8
S2140050A0191CD4AEED2C8CECCCF239CB331DCCC70E
S2140050B0DCF5358D4E3AAEE9DA3492977BB6BEEF24
S2140050C0F825C7258F36B2D0F9F7E33FED17FB5F1B
S2140050D05FFC3D9EDE6F80BF067C691DC4903B6909
S2140050E09A77C4CFB14EAC93248A7CCB9B448CED8C
S2140050F02809F9BB71CD78378A3FE0AD5ABE9DFBD3
S2140051004F7C318FE28FECE3F1CBC2BE34F01DBE94
S214005110B77E3C1DA6F87C6BD6DE31D5EE5A0B78F2
S214005120AE74BBC8D9525F222175FBE654422E5896
S21400513029E99FBEAA482F26B685A38A69A38DC9EA
S2140051402C88E555B3D720706B1C3F1C62E0AD5A27
S2140051500A5F8155326A6FE1763F3C7E367C76FD8B
S214005160A8BF6AAFD9B752F07F80BF64DF17787FD9
S214005170C2FE23BED4354D46EBC67E2ED3BC29AB2D
S2140051803EA1722E6513436B306788417F3457B05B
S214005190BAB6E596D21CB11B89F96FF68CFF008271
S2140051A065FED61F117F6ECD03E3C781FE03F8238D
S2140051B0C012D8E91A7E8DA8F862DBE2469F796FA6
S2140051C07F0DA4096A9B5CB44B1FFA3C56EA140692
S2140051D051240AFCE4AD7ED6AA2A0F9540FA0A5A54
S2140051E0CEBF1A626AC5C254E3CAEFA6BB76DCE934
S2140051F0C0E06584AF0C4E1E6E33834D35D1A77468
S214005200CFCADF8CBF1B353FD9317EDDF18BE1EF96
S2140052108E7E19E931431DC2EBD73629ADE832CA76
S214005220C6422DD6F34F6B88FCDC44EDE5BED62097
S2140052300E09201F9B7C2DE1DF1B7C41D0FC69A260
S214005240E93F0F756F16F82EF679AC345BED7B539D
S2140052508742BEBAD22EE160F15D25CB7DA498567A
S214005260431C772B1B99A3D8CCAAEA43FEED6B5AB6
S2140052702D9F89344D434CD46CED750D3756B69240
S214005280CAFAD2EA159EDEF6DE452B2432C6E0A424
S21400529091BA92AC8E0AB0241041C57E69FED91F21
S2140052A0F04D9D73F66AF8D1A3F88BE09F85F5EF75
S2140052B0117C3EF1E6ACF6379E02F0FC0AD378236A
S2140052C0539A396E1753D3DE578E1B5D2E6789D2DD
S2140052D0E629A7861B69678E48D8ACAB045CB81C69
S2140052E0550AA9C29C129EF66DD9DB5D1DD34F7D73
S2140052F0DD9AF3B1FAE657E2162B1389853CEEB732
S2140053002D3D573C22AEB9B4B4E2D4A2E3B6AA37D8
S2140053104D27B731E4FF000BFC07F1FF00C21F0C5E
S214005320FC3BA0EA1E23F85771A86996E21BDD66CF
S21400533055D46FE7BC23014984C71286DA3E66124D
S21400534090CDB98000ED17BC69E0FF008D925BDC64
S214005350343AC7C3EF145AADABB0D3A28EEBC3B387
S2140053605C4C39545989B9421BEEFCED1AF3C9C599
S2140053707AF782BF61FF00DAA756F09C37C74AF873
S21400538057E17BDB85CA69DE25F1EDC6A1716E3B70
S21400539079DF61D2678F77B4774C320FCCC39ABD72
S2140053A007EC0DFB5A5B491B4DAF7ECDF7D093FB48
S2140053B0C8E3D435BB39147FB321D36604FD63FC40
S2140053C02894A4E5AFB3F4BC7F3BDD7DE91F711ED6
S2140053D034E18A694238EAD7D94AD55D92D36F67F5
S2140053E0CAFD5C5B7BDEFA9F1CFF00C139FC63E1F3
S2140053F07F8ADF13BC47AE78A9EE34FF008EDA54FE
S214005400971692785B5485EDA5F05E9A1D9120B1B3
S2140054108DC0F30B22869E751BF2EAACB1AE3CCF74
S214005420B080C0AF8DBFE0AA1FF04ECF8E3E12F008
S214005430EDCFC46B9F86DAAC3E2EF0137DBB4EF1EB
S214005440AF823585F115B4B008E499FCF11476BA4C
S21400545095AF92537A4C6C8C31BE15DD237664E59D
S2140054603F603FDAFBC59FB477C3A4D512E921D6C7
S2140054702C6FC41E27D4B57F125D346D7526E749A0
S214005480ADEC63B79D16278C3620536F0AB2384DA5
S214005490A32476E3B03EDA8AC6527A6CD5D351EDB1
S2140054A0677B59F4EB7DEEF51F05F1AE1162A5940E
S2140054B0292AADDE6AA25252A97DF9A1CAE4A6BA8B
S2140054C0ED1E5578D92515F7A515976BE30D264BD8
S2140054D03590EB5A3C8140DF22DD471AE7BF05CE08
S2140054E0DFA1248F53D69E9E2ED2E784C90DF5BD2C
S2140054F0C46BD5EDC99D47D4A022BE78FD86324F39
S214005500623B9F1DE87672B24DACE970BA9C157B83
S214005510A4520FE7542F7C51E10D55F371A878661D
S214005520E9BA6669A093F56CD72FE2CFDB67E1375F
S2140055308184EBAA7C4CF07DB496BC4B6E75688D6E
S214005540C27B795BB7FE4B5E7F65FF00054EF82594
S214005550E30D67FB27C3BAD6B3E31D698911E9DA01
S21400556047866FEF2E2723FB80424375EA0D76535E
S214005570C16227AD3A727E89FF0091E1E338872C3D
S214005580C33E5C562A943CA538AFCE48F728BC0DDF
S214005590E0DD6701354F87619870A9E22B385BF232
S2140055A05945685B7ECD76FAC0FF00896DC58B7A5B
S2140055B07D83C510B7FED535E3337C6EF1978875CD
S2140055C068AC6C3F645FDA6EFF00ED38115CCDF0BE
S2140055D0BA54B59323825E631851EEC40AE92F7F4E
S2140055E065EFDA8FC5FA3ADE683FB15DCDC4137356
S2140055F01FF696BBE1CD1A7FF814725DC8EBF8ADC6
S2140056007A14F23C6CB6A52FBD2FCCF95C4788B94E
S2140056100D2BB963A97CA3297FE92CEF35BFD8C32E
S21400562053F1168D71A5EA36FAB6B5A0EA0AB0EAC5
S2140056305A74F7F6F7F15F5BEE0CF110588C9C7C11
S214005640AD8CA3056186504784FC15F891E24FF8AF
S2140056503713F6DCD0FC436F7DE2CD43F636F8B563
S214005660762C35BB1BBB69277F065FB8765DD1728B
S214005670C92C7B5A456407ED56EB30512490E23E28
S214005680C341FD8BBF6DA9EE7747FB27DE787CA96B
S214005690E1A1F8C3A2DBAFE1E42935E4BFF0515F36
S2140056A0831FB51788FE00F89FE0FF008BBC03A29F
S2140056B069DAB6B9A65B6B434DB9F8A5A5EAD79AE1
S2140056C05D8DBDEA4CFAA5C466056B4B1416D32354
S2140056D0DF5CCF6F6A8494698BB24527D0E4B81C30
S2140056E0C7075B5A6F91E8FDE8E9E7A3E9F89F93DF
S2140056F0F885C45C319F605B862A3EDA9A6E0D524E
S214005700AB172D3E16DA7A3D95DA49BBB3FA40B9A7
S214005710D56D6CF4E6BC9AE208ED5543999E40239D
S2140057200A7A1DDD31EF5F00FED19FF0570D4FE383
S21400573066A5A6F82BF66D87FB66E3C58F79A7D915
S21400574078BC58497CD3DC5B5D79128D2EC7E53773
S214005750517C92AFF694EF0697133217BBC868EBEE
S214005760E69F847F0D3C79F107F61EF843A0FED134
S2140057701E22B7F873F09FC1BA0E85E11D3AC751D5
S214005780D1659ACFC5F776D1A436B6DA66832AAE47
S214005790A3AA6B3FE8B2C8AFA840D65E6C708B7DFC
S2140057A01F538C2EA07B0D4BE21DEFC35F0BDE69F3
S2140057B0FE16D1FC55F0CB418ED34E4F194B77AA2F
S2140057C04571F113C4A65825B7B787C5FE2894CDF2
S2140057D00E9244B7B6863B3D3E6D4B5B36F7B6E65B
S2140057E0CEDAD76FD9C7DBEFA23F9ECA1F05FF00F0
S2140057F066CF0DE9BF1BF4FB3F8A57DAF7C4AF8BC1
S214005800DAE6A42F7C45E0CD13568F5B93C24B7728
S21400581009B99BFE12CD614451C966A2E6268B4F9C
S2140058208D6DED1FCB091417CC039ECFFE0A7BA708
S2140058307F6CFC56F87767259DF78CB56D4ECEEFDE
S214005840FE11FF000BDFBB6B1A5DD5E5BCF6B77229
S2140058503C1E1EB731CBA9DE3242479B7734761604
S214005860A819E478C901FD0FF607F810DE04F03F2A
S214005870F6C5D697AE7859EE2677B4D012C1743DE9
S2140058802620F0C11B5F2DA0964BEBA9EE6286DCAE
S214005890C975AEC8FA8F991393058192481BD67EB8
S2140058A03FE9BE32D6FE0EEBB65E02F12DF7853C22
S2140058B0497112986F6D2EADACE464560CF17DA262
S2140058C0E2DAEA2B6575055A736D3346A58AA16C34
